:020000040000FA
:06000000020C7802022D43
:03002B0002093C8B
:0300330002025076
:030053000201693E
:03006B0002091473
:03007B000207A5D4
:100083000201C90101FF01010503010F10FEFFB7C2
:100093003000000000ED2F00000000FF000000FF13
:1000A300000100000E1B00004E1AFA196A1CA81A60
:1000B300C21B481A361A00000000000000000000AE
:1000C3000000000000000000000000000000FF012D
:1000D3000100AF07000000E803FFFF2A0803E8035D
:1000E30064006400B801020200080000050207046E
:1000F30001051E02051E020A0A0103B80B02803E17
:100103000102FEFFE8030A050001FFFF0A1401E0F4
:100113000020FD000206FFFF00035F005F003000C8
:100123005800000000000000000000000000000074
:1001330000000000000000000000000000000000BC
:100143000000C40519061906190619062106FF0041
:100153000810E8030A090107050001BA8101C081FB
:100163000A2710691100C0E074F2120565A2AFE41A
:1001730033FED2AFE5A7FFE5A1F5085F5410600693
:1001830012262A75A1EFE5085F540860081226308D
:1001930075A1F78024E508A2E092F0EFA2E082F0D7
:1001A3005017906198E0F8900986E0C398A2D26551
:1001B300D0335002E8F075A1FE751A00EEA2E0926A
:1001C300AF7F01020621C0E074F2120565A2AFE41D
:1001D30033FED2AF9061A4E0F8759B00E5915854CB
:1001E3000860087591F71226788023E5915854101A
:1001F30060087591EF12267E8014E591A2E092F0DB
:10020300E8A2E082F05007E0C2E0F01227DA906142
:10021300A3E0F8E5E9585404600E1227B075E9FB32
:10022300906193E0A2E640F2808FC0E074F2120581
:1002330065A2AFE433FED2AF9061A5E0F8E5BF5805
:100243005404600675BFFB1227F20201BCC0E074C0
:10025300F1120565E59DA2E650FA906206E0FAA266
:10026300E25035A82CE890620BF0F508852D09744F
:10027300047808120C97E508906207F0852C08852E
:100283002D0974097808120C97E508543E90620909
:10029300F0906201E0D2E0F07829EA46F69062023B
:1002A300E0F50875090074047808120BEE7829E567
:1002B3000846F608E50946F6906204E0F508750974
:1002C3000074097808120BEE782AE50946F6EAA2CB
:1002D300E05003752B0174065A6003752B00E58B00
:1002E300A2E55006758BDF752B001229A2758B00D2
:1002F300C2E87F02020621C3E498F8E499F91203E5
:100303003B8026C3E49AFAE49BFBE920E7E9120366
:100313003BE498F8E499F922C3E498F8E499F912D4
:10032300033BE498F8E499F9C3E49AFAE49BFB22CB
:10033300EB20E7CFE920E7E0B90010BB0008E88A2B
:10034300F084F8AAF022E4FBC8FA22EB70227B10B7
:10035300C833C8C933C9335007C39AC3DBF2800615
:100363009A50012ADBEAC833F4C8C933F4C9FA2224
:1003730075F008E4C833C8C933C933C99AC99B5057
:1003830004C92AC93BD5F0ECFBC833F4C8E4C9FA65
:1003930022080808EAC0E0EBC0E086F0E7A4FA18F8
:1003A3000986F0E7A42AFA180986F0E7A42AFA18BE
:1003B3000986F0E7A42AFA1986F0E7A4FBE5F02AF8
:1003C300FA190886F0E7A42BFBE5F03AFA19088638
:1003D300F0E7A42BFBE5F03AFA18180986F0E7A436
:1003E300C5F02BFBE43AFA1908E7C5F0C6A426F6D4
:1003F300E5F03BFBE43AFA1886F0E7A4F6E5F008EB
:1004030026F6E43B08F6E43A08F6D0E0FBD0E0FA3F
:1004130022120CF2B90003020474E47921780DB8B6
:1004230000028004F709D8FCE49004D178C9790C60
:100433008002F0A3D8FCD9FA781A9000867A01BA20
:1004430000028007E493A3F608DAF97A997B109007
:10045300008778E379018015E493A3AD82AE838AA4
:10046300828B83F0A3AA82AB838D828E83D8E9D952
:10047300E77582B27583B27406120A0075828075BD
:10048300832D7400120A00E4CFC0E0E4CEC0E0E4A0
:10049300CDC0E0E4CCC0E075F020E626F608E633F4
:1004A300F608E633F608E633F6181818EC33FCEDD5
:1004B30033FDEE33FEEF33FFC3EC9709ED9709EEFF
:1004C3009709EF97191919400FFFEC97FC09ED975E
:1004D300FD09EE97FE191906D5F0BFECF709EDF704
:1004E30009EEF709EFF7191919D0E0FCD0E0FDD0B8
:1004F300E0FED0E0FF222518C582C0E0E51934FFF5
:10050300C583C0E0E518C3958224F810AF0885833E
:10051300198582188008858319858218D2AFCEF099
:10052300A3E520F0A37808E608F0A3DEFAEFF0A332
:10053300E58124FAF8E608F0A3E608F0A3E608F05C
:10054300A30808E608F0A3E608F0A315811581D0F7
:10055300E0FED0E0F8158115811581E8C0E0EEC01A
:10056300E022C0D02518C582C0E0E51934FFC58359
:10057300C0E0E518C3958224F310AF08858319857D
:1005830082188008858319858218D2AFC8F0A3E941
:10059300F0A3EAF0A3EBF0A37908E709F0A3D8FAF4
:1005A300ECF0A3EDF0A3EEF0A3EFF0A3D0E0F0A303
:1005B300D0E0F0A3D0E0F0A3E520F0A3E5F0F0A3B2
:1005C3002212010002020000205104A816090001B2
:1005D300020301090243000201008019090400001B
:1005E3000102020100052400100104240202052473
:1005F30006000105240100010705820340004009AC
:10060300040100020A0000000705840240000007FD
:10061300050402400000DF05000002060000851902
:1006230083851882E0C0E0A3E0F9A3E0FAA3E0FB2E
:10063300A37808E0F608A3DFFAE0FCA3E0FDA3E05B
:10064300FEA3E0FFA3E0C0E0A3E0C0E0A3E0F5D099
:10065300A3E0F520A3E0A3F5F010AF088583198587
:1006630082188008858319858218D2AFD082D083FF
:10067300D0E0F8D0E032E4731075F0108E218F22B1
:10068300858226858325851882851983E0CEA3E09C
:10069300CF852682852583EBC9EAC8EDCBECCAC397
:1006A300E833C8E933C9EA33CAEB33CBC3EA9EF56F
:1006B30024EB9FF523B35004AB23AA24EC33CCEDF6
:1006C30033CDD5F0DAAE21AF2222D083D082ECC075
:1006D300E0EDC0E0E493A3FCE493A3FDED4C600DD7
:1006E3001207E8EC24FFFCED34FFFD80EFE493A355
:1006F300FCE493A3FDED4C600D1208BFEC24FFFC5A
:10070300ED34FFFD80EFD0E0FDD0E0FCE493A3C027
:10071300E0E493C0E022D083D082E9C0E0E493A375
:10072300C386F0C5F095F0F908E493A386F0C5F00D
:1007330095F0700BE493A3C3994005E9048002A3E9
:10074300E475F002A42582F582E5F03583F583D0C4
:10075300E0F9E493A3C0E0E493C0E0228519838524
:100763001882E0A3FEE0A3F5207808E0A3F608DFF3
:10077300FAE0A3FFE0A3C0E0E0A3C0E0E0A3C0E091
:10078300E0A3C0E0E0A3C0E010AF08858218858332
:10079300198008858218858319D2AFD083D082024D
:1007A3000A06C0E074F2120565A2AFE433FED2AFCD
:1007B300E58AA2E25007900947E0D2E0F0E58AA279
:1007C300E35007900947E0D2E1F0758A00C2EB7A63
:1007D300107B00900943E0F9121E0EEEA2E092AFE7
:1007E3007F01020621C0E0C3E49396087401939647
:1007F30018400FE49366700808740193661870003C
:100803007019A3A3C3E49396087401939618A3A342
:10081300400DD0E0D0E0D0E0020709A3A3A3A3A337
:10082300A3D0E022D083D082C5F0E493A3C5F0C364
:1008330095F0F5F0E493A3C395F04005E5F004804B
:1008430001E475F002A42582F582E5F03583F58392
:10085300E493A3C0E0E493C0E0227404800874032B
:10086300800474028000CCC0E0EDC0E0E518C39CB6
:10087300CCAD1950011D10AF068C188D1980068C54
:10088300188D19D2AF120982D0E0FDD0E0FC22749A
:10089300028000CCC0E0EDC0E0E518C39CCCAD19EC
:1008A30050011D10AF068C188D1980068C188D19F8
:1008B300D2AF120960D0E0FDD0E0FC22C0E0C0F06E
:1008C30088F0E4936670080874019366187000A8B2
:1008D300F0A3A3700BD0F0D0E0D0E0D0E002070982
:1008E300A3A3D0F0D0E022D083D082CCC0E0E493A5
:1008F300A360061209C21470FAE493A36006120AF5
:10090300E81470FAD0E0FCE493A3C0E0E493C0E001
:1009130022C0E074F2120565758900C2C59010917A
:10092300E0700E7A007B10900722E0F9121E0E8011
:1009330003122BEE7F01020621C0E0C0D0E8C0E025
:10094300E9C0E0E5A8D2AFC2C7751A00A2E7A2E7E3
:1009530092AFD0E0F9D0E0F8D0D0D0E032CAC0E016
:10096300E493A3C582CCC582C583CDC583F0A3C55B
:1009730082CCC582C583CDC583DAE5D0E0CA22CA5D
:10098300C0E0E0A3C582CCC582C583CDC583F0A3F7
:10099300C582CCC582C583CDC583DAE6D0E0CA2241
:1009A3007009080808226016181818C6C333C60849
:1009B300C633C608C633C608C633C6D5E0EA22C066
:1009C300E0E493A3D39C5010E493A3C39C400AD0C8
:1009D300E0D0E0D0E0020907A3A3A3D0E022C0083F
:1009E300C3E096F50808A3E096420808A3E0964200
:1009F3000808A3E09645087001D3D00822C09FF5EC
:100A03009FE473D09F22D083D082C09FE493C0E041
:100A1300740193C0E0740293F59F222518F58210A8
:100A2300AF08F518400C15198008F5184002151980
:100A3300D2AF851983227404800A7403800674027A
:100A430080027401C0E0F404120A1ED0E0120CB557
:100A53002200C0D0251810AF08F518500C051980D6
:100A630008F51850020519D2AFD0D022BB0102E716
:100A730022C082C08389828A83BB0003E08002E4B0
:100A830093D083D082226016080808C6C313C61801
:100A9300C613C618C613C618C613C6D5E0EA222560
:100AA30018F8E43519F9222518FAE43519FB22253B
:100AB30018FCE43519FD22C3E0C696F608A3E0C688
:100AC30096F608A3E0C696F608A3E0C696F6222596
:100AD3001810AF08F518400C15198008F5184002D6
:100AE3001519D2AF22C0E0E493A36C7009D0E0D013
:100AF300E0D0E0020907A3A3D0E022BB000EC0822E
:100B0300C0838A838982F0D083D08222BB0101F71C
:100B130022E066701008A3E066700A08A3E066701E
:100B23000408A3E06622E76670100809E766700A06
:100B33000809E76670040809E76622C3E09608A37C
:100B4300E09608A3E09608A3E096A2D265D03322EC
:100B5300C3E096F008A3E096F008A3E096F008A39C
:100B6300E096F022C3E697F60809E697F60809E649
:100B730097F60809E697F622C3E49396087401935F
:100B8300960874029396087403939622E026F60857
:100B9300A3E036F608A3E036F608A3E036F622E033
:100BA30026F008A3E036F008A3E036F008A3E03609
:100BB300F022E657F60809E657F60809E657F6085D
:100BC30009E657F622E056F608A3E056F608A3E036
:100BD30056F608A3E056F622E627F60809E637F6A6
:100BE3000809E637F60809E637F622700422600D95
:100BF30018C6C333C608C633C6D5E0F41822E64781
:100C0300F60809E647F60809E647F60809E647F64F
:100C130022E056F008A3E056F008A3E056F008A33C
:100C2300E056F022E4C396F608E496F608E496F656
:100C330008E496F622C6F4C608C6F4C608C6F4C687
:100C430008C6F4C622600D08C6A2E713C618C61369
:100C5300C6D5E0F322C3E7960809E7960809E796A5
:100C63000809E79622C3E09608A3E09608A3E09656
:100C730008A3E0962275D00075813F7518D17519C8
:100C83000400020414E6F008A3E6F008A3E6F00863
:100C9300A3E6F022600C08C6C313C618C613C6D554
:100CA300E0F422E0F608A3E0F608A3E0F608A3E0E8
:100CB300F622CAC0E0E6F0A308DAFAD0E0FA22E8A6
:100CC300F0A3E9F0A3EAF0A3EBF022E0F8A3E0F944
:100CD300A3E0FAA3E0FB22EAF0A3EBF0A3ECF0A37A
:100CE300EDF022E0FAA3E0FBA3E0FCA3E0FD22E5A4
:100CF300C754F84401F5C77901222518F582E43574
:100D030019F58322C2AF75D69F02000022120A0989
:100D130050AC02120A0964AC02120A0978AC02123E
:100D23000A098CAC02120A09A0AC02120A09DCAC53
:100D330002120A090CAD02120A09A5AE02120A092F
:100D430061AF02120A0919B002120A096EB0021247
:100D53000A09D1B002120A090FB102120A0939B104
:100D630002120A09C5B102120A091EB202120A09C5
:100D73007FB202120A09BEB402120A0992B6021223
:100D83000A0971B702120A09AAB802120A095DBB5D
:100D930002120A0970BE02120A097FBE02120A0970
:100DA3000BBF02120A09C1BF02120A0908C00212CC
:100DB3000A0951C002120A098DC002120A0903C1AD
:100DC30002120A096FC102120A098BC102120A092F
:100DD300BCC102120A09FBC102120A09FCC20212B7
:100DE3000A09ABC302120A093CC602120A0995C7D3
:100DF30002120A0928C802120A09B2C802120A0911
:100E0300CDC802120A0913C902120A09C4C902127F
:100E13000A0975CA02120A09F2CB02120A097DCC29
:100E230002120A09C0CC02120A095CCE02120A0994
:100E33009BCE02120A0911CF02120A0966D00212CE
:100E43000A0909D102120A093DD102120A0955D130
:100E530002120A09F8D102120A0982D402120A09FB
:100E630023D602120A0941D602120A095FD60212D8
:100E73000A092FD702120A0984DA02120A0900802A
:100E830003120A095A8003120A09C48003120A09C9
:100E93004D8103120A09098203120A0951820312BE
:100EA3000A09768203120A09B18203120A09078327
:100EB30003120A096F8303120A09F38303120A094F
:100EC3000C8403120A09318403120A0950840312A1
:100ED3000A098E8403120A09DD8403120A090685AE
:100EE30003120A09558503120A09018603120A0926
:100EF300C98603120A092E8703120A09FB87031204
:100F03000A09418803120A095D8803120A098F88B6
:100F130003120A09378A03120A090E8B03120A09FC
:100F23003A8B03120A09708B03120A09918B03127D
:100F33000A09A08B03120A09AB8B03120A095F8CFF
:100F430003120A09D28C03120A09448D03120A09F7
:100F53004C8D03120A09C78D03120A09208E03124E
:100F63000A09638E03120A09F59003120A093B92D8
:100F730003120A09CB9403120A09B39503120A094F
:100F8300E69503120A09A89603120A095797031252
:100F93000A099F9703120A09019803120A0926985E
:100FA30003120A09379803120A09AF9803120A09B0
:100FB300379903120A099B9903120A09809A0312AB
:100FC3000A09A59A03120A09C69B03120A09E49B9C
:100FD30003120A09F79B03120A096A9C03120A09FE
:100FE300799C03120A09019D03120A09499D031200
:100FF3000A09569D03120A095F9D03120A095F9F9E
:1010030003120A09B3A003120A09C3A003120A09AF
:10101300DFA103120A094DA203120A0987A20312D0
:101023000A09BDA303120A091EA403120A0960A434
:1010330003120A099CA403120A0970A603120A09DF
:10104300D5A803120A09E9A803120A09F3A803128F
:101053000A09FDA803120A0907A903120A0911A91B
:1010630003120A092AA903120A0934A903120A0955
:101073003EA903120A0948A903120A0977A9031210
:101083000A099FA903120A09AAA903120A09F4A9C2
:1010930003120A09FEA903120A0909AA03120A097B
:1010A3002DAA03120A0951AA03120A09B2AA0312AA
:1010B3000A09FDAA03120A0919AB03120A0983AB31
:1010C30003120A09CFAB03120A0917AC03120A0968
:1010D30092AC03120A092CAD03120A09F0AE0312F3
:1010E3000A095EAF03120A0990B003120A09B6B0E7
:1010F30003120A0926B203120A09DAB503120A090E
:10110300DAB703120A09B2B903120A094BBA031276
:101113000A095DBC03120A091FBD03120A096BBD4C
:1011230003120A09D1BD03120A09E3BD03120A0916
:1011330033C003120A0922C103120A0961C203124E
:101143000A09B3C203120A0958C303120A0913C5D1
:1011530003120A0944C603120A0962C603120A09E2
:10116300B7C603120A09B5C703120A09DDC703127A
:101173000A0940C803120A0941C903120A09B4C97A
:1011830003120A09E2CA03120A094DCB03120A0920
:101193003DCC03120A09A3CE03120A09D1CE0312CE
:1011A3000A09CCCF03120A096AD103120A09BAD178
:1011B30003120A0972D203120A0927D303120A0976
:1011C3008BD303120A0944D403120A09E4D4031289
:1011D3000A0948D503120A0992D503120A09CFD581
:1011E30003120A0937D703120A09C38101120A0934
:1011F300058201120A09008501120A0953850112A9
:101203000A09998501120A09DA8601120A093F8738
:1012130001120A097F8701120A09C28801120A0909
:10122300048C01120A092D8D01120A096E9801120C
:101233000A090E9901120A09019C01120A09389D33
:1012430001120A09AE9D01120A09D89E01120A0968
:1012530028A001120A090FA101120A0978A3011299
:101263000A0986A501120A0917A601120A09EBA6A3
:1012730001120A0977A701120A0981A701120A09B3
:10128300A9A701120A0956A801120A0941A90112C4
:101293000A0914AA01120A09A1AA01120A09B7AA82
:1012A30001120A091BAB01120A0944AB01120A0914
:1012B30071AB01120A09B6AD01120A0991AE01120E
:1012C3000A09D5AE01120A0946AF01120A09FFAF96
:1012D30001120A0931B001120A0978B001120A0990
:1012E300ABB001120A0910B101120A095FB1011270
:1012F3000A0964B101120A09B8B101120A0902B25A
:1013030001120A09E1B201120A0940B301120A09E2
:10131300A5B301120A0903B401120A094DB7011258
:101323000A0921B801120A09AEB901120A0988BCD7
:1013330001120A093BBD01120A0962BF01120A091F
:1013430007C001120A0945C001120A0915C2011298
:101353000A0928C201120A0931C201120A093AC252
:1013630001120A094FC201120A096EC201120A09C7
:10137300A3C401120A09F6C401120A0900C5011225
:101383000A090AC501120A0965C501120A09C1C57C
:1013930001120A09D9C601120A093AC701120A0938
:1013A30089C801120A09D2C801120A09AAC901127D
:1013B3000A09D5CA01120A098BCB01120A098DCC7D
:1013C30001120A098FCD01120A0974CE01120A090A
:1013D3008BCE01120A09C8CE01120A09D2CE01121C
:1013E3000A09DCCE01120A09E7CE01120A0905CF68
:1013F30001120A0947CF01120A09A5CF01120A09EE
:10140300CACF01120A09E4CF01120A0971D00112ED
:101413000A09AAD001120A09FAD101120A0951D202
:1014230001120A096BD301120A09A1D301120A0995
:101433003DD401120A09B9D401120A0929D60112AD
:101443000A0944D701120A090AD801120A09B4D8B1
:1014530001120A0939D901120A09A1D901120A098B
:1014630056DA01120A09A8DA01120A091DDB011270
:101473000A09E6DB01120A0909DC01120A09CDDCBB
:1014830001120A09F1DC01120A0913DD01120A092A
:1014930074DD01120A09BFDF01120A099AE0011281
:1014A3000A0944E101120A0985E301120A09D3E397
:1014B30001120A0916E401120A096EE401120A096B
:1014C300CCE401120A09F6E401120A091AE5011231
:1014D3000A094BE501120A0975E501120A09BCE57F
:1014E30001120A091AE601120A0976E601120A092B
:1014F30077E701120A09E1E801120A091FE901125B
:101503000A0948E901120A09D9E901120A0923EA79
:1015130001120A0947EA01120A099DEA01120A099E
:10152300B8EA01120A0973EB01120A099DEB0112D1
:101533000A09E0EB01120A0936EC01120A093BEF32
:1015430001120A096EEF01120A092BF001120A09AE
:1015530006F101120A0996F101120A09D7F10112E3
:101563000A09E9CD05120A0921CE05120A0942CE5C
:1015730005120A0984CE05120A09E8CE05120A09E2
:10158300F2CE05120A0902CF05120A0939CF051254
:101593000A09E2D205120A09AAD405120A099ED63B
:1015A30005120A093CD705120A09C3D705120A090D
:1015B300E33300120A098C3400120A096B35001256
:1015C3000A09863600120A09A63600120A09C83724
:1015D30000120A09653900120A09D23900120A09F0
:1015E300A83A00120A09AE3B00120A09133C001282
:1015F3000A094F3C00120A09A83C00120A09E13CFF
:1016030000120A092A3D00120A09BC3D00120A0908
:10161300593E00120A092E3F00120A09FB3F00122D
:101623000A09884000120A09AE4000120A09DB4089
:1016330000120A090C4100120A09E14100120A09C9
:10164300F14100120A09444200120A0951420012F0
:101653000A095E4200120A09674200120A09CB42D4
:1016630000120A09294300120A09744300120A09E5
:101673008F4300120A09B64300120A09D34300122A
:101683000A09DF4300120A09834500120A099C452F
:1016930000120A09184600120A092B4600120A0909
:1016A3003B4600120A09E14600120A09514800129A
:1016B3000A09644900120A09044A00120A090E4A77
:1016C30000120A097C4A00120A098D4A00120A090B
:1016D300CC4A00120A09FA4A00120A09C74B00123F
:1016E3000A091E4C00120A09634C00120A09B94C7C
:1016F30000120A09D74C00120A09254D00120A09E3
:10170300F34D00120A09414E00120A09834E0012DA
:101713000A09064F00120A09304F00120A09664FE0
:1017230000120A09754F00120A09D34F00120A0961
:101733004B5000120A098C5000120A09DB500012A8
:101743000A09065100120A09205100120A093A51E6
:1017530000120A090F5200120A09195200120A094B
:10176300545200120A09645200120A096D520012FF
:101773000A09BE5200120A09D25200120A09F05392
:1017830000120A09035400120A091A5400120A0922
:101793002F5400120A09C95400120A0948550012AD
:1017A3000A09EB5500120A09F65500120A094357B4
:1017B30000120A095F5700120A09B75700120A09F3
:1017C300255800120A09715800120A098B58001291
:1017D3000A09EB5800120A09895900120A09D45957
:1017E30000120A09375C00120A09CF5C00120A09C9
:1017F300465D00120A098C5F00120A09A45F0012F9
:101803000A09A75F00120A09B35F00120A09C75F3A
:1018130000120A09CF5F00120A09066000120A09C2
:10182300FA6000120A09846100120A0906620012B2
:101833000A097B6200120A09536300120A097563DD
:1018430000120A090C6400120A09186400120A093A
:10185300756400120A09786400120A09A56400126B
:101863000A09BA6400120A09296500120A09756691
:1018730000120A09886700120A09136800120A098C
:10188300266900120A09F06900120A09216A001286
:101893000A09476A00120A09506A00120A097F6A94
:1018A30000120A092F6B00120A09DF6B00120A09E2
:1018B300526C00120A09046D00120A09776D0012B6
:1018C3000A09B66D00120A09FF6D00120A09346E87
:1018D30000120A0937B505120A09B8B505120A0933
:1018E300FFB505120A0975B605120A09EDB6051208
:1018F3000A097EB705120A09C2B905120A0908BC0A
:1019030005120A09DDBF05120A095AC005120A09A0
:1019130095C005120A09B3C005120A0913C10512BD
:101923000A093BC105120A096BC105120A099CC1C8
:1019330005120A09C9C105120A0922C205120A09B8
:101943006DC205120A0998F201120A0914F3011271
:101953000A093AF301120A0971F301120A09CAF4D6
:1019630001120A09E6F401120A092BF501120A0908
:10197300BBF501120A0913F601120A09E8F601126E
:101983000A09C6F701120A0910F801120A0971F8C7
:1019930001120A09F5F801120A091EF901120A09CE
:1019A3005FF901120A090DFB01120A09DDFB01129D
:1019B3000A09A4FC01120A0977FD01120A09B1FD03
:1019C30001120A0909FE01120A092BFE01120A0972
:1019D300BFFE01120A0972FF01120A09BDAA06120B
:1019E3000A0922AB06120A09C9AB06120A0901AC9D
:1019F30006120A099C6E00120A09476F00120A09AF
:101A0300E47000120A09607100120A099871001249
:101A13000A09837400120A09157600120A0950761E
:101A230000120A09E37600120A091B7A00120A0956
:101A3300BC7B00120A0940D606120A0968D60612B0
:101A43000A0954D706120A09D7DD06120A09FBE967
:101A530005120A0986EA05120A0940EB05120A096A
:101A6300F6EB05120A0943EC05120A0989EC051283
:101A73000A0991ED05120A0949EE05120A096BEEEE
:101A830005120A09B4EE05120A0903EF05120A0941
:101A93004AEF05120A09BAEF05120A09F9EF05120E
:101AA3000A09DEF005120A09288706120A09AB871C
:101AB30006120A09C28706120A09358806120A099C
:101AC3009B8806120A09C48806120A094989061264
:101AD3000A09EB8906120A094E8A06120A09B38A11
:101AE30006120A09D38A06120A09038B06120A0987
:101AF3001F8B06120A094E8B06120A097E8B0612E9
:101B03000A09B48B06120A09148C06120A09A4C224
:101B130005120A0974C305120A0999C305120A09B1
:101B2300B9C305120A09CDC305120A0935C4051242
:101B33000A0959C405120A0978C505120A09A2C679
:101B430005120A097FC705120A09E3C705120A0924
:101B53000FC805120A0993C805120A09E4C8051239
:101B63000A0905C905120A097DC905120A09A2C98C
:101B730005120A0905CA05120A0995CB05120A09B5
:101B830062CC05120A0999CC05120A09BECC0512CA
:101B93000A09DECC05120A0904CD05120A0918CD7B
:101BA30005120A0981CD05120A09D5CD05120A09C4
:101BB300F3CB06120A09FECB06120A091FCC061242
:101BC3000A092C9405120A09219805120A094E994B
:101BD30005120A093B9B05120A09C59B05120A094E
:101BE300749C05120A099D9C05120A09D29C0512D0
:101BF3000A09AD9D05120A093D9E05120A09B09E08
:101C030005120A09329F05120A09359F05120A09AE
:101C1300389F05120A093B9F05120A095B9F0512AB
:101C23000A095E9F05120A09779F05120A09D39FC5
:101C330005120A09CBA005120A0903A205120A0913
:101C43005BA205120A0904A405120A09FDA40512E0
:101C53000A09CFA505120A097DA605120A0940A79C
:101C630005120A09A2DA02120A09DADA02120A09C9
:101C7300BBDF02120A09ACE002120A093AA40212FB
:101C83000A0956E102120A0984E102120A09D8E19B
:101C930002120A0906E202120A0927E302120A09DA
:101CA30055E302120A0983E302120A09B9E3021295
:101CB3000A0966E402120A098CE402120A09EBE437
:101CC30002120A0961E602120A09FBE602120A0974
:101CD300ECE702120A0938E802120A094EE8021276
:101CE3000A0969E902120A09BCAB02120A0990EA5D
:101CF30002120A09DFEA02120A094BEB02120A096D
:101D0300B3EB02120A0900EC02120A0970EC021288
:101D13000A0981ED02120A0975EE02120A0925EF7A
:101D230002120A095AEF02120A09AFEF02120A0954
:101D33003DF002120A096BF002120A09F0F10212D5
:101D43000A0975F202120A09B5F202120A09F4F23B
:101D530002120A090DF302120A09BCF302120A095C
:101D630086F402120A092DF502120A09C1F50212BC
:101D73000A0967F602120A09D1F602120A095CF788
:101D830002120A09EFF702120A090DF802120A09F0
:101D9300E0F802120A099EF902120A0954FA021221
:101DA3000A09F2FA02120A0907F905120A0948F99F
:101DB30005120A09B1F905120A09D2F905120A092D
:101DC300EBF905120A09A5FA05120A09AEFA05127A
:101DD3000A09FFFA05120A0928FB05120A093FFB43
:101DE30005120A09A3FB05120A0935FC05120A09A3
:101DF30066FC05120A09C2FC05120A0928FD051230
:101E03000A095CFD05120A09CFFD05120A0911FE34
:101E130005120A0951FE05120A0989FE05120A096B
:101E23009BFE05120A09ADFE05120A09DEFE051224
:101E33000A091EFF05120A0947FF05120A09879CB2
:101E430006120A09CA9D06120A09F09D06120A091A
:101E5300019E06120A0919A006120A0938A00612E1
:101E63000A09C0FD04120A09F6FD04120A0941FE1B
:101E730004120A098DFF04120A09008005120A09D7
:101E83003E8105120A097A8105120A093F83051268
:101E93000A09698305120A09EF8505120A092F86C3
:101EA30005120A09C48705120A09598805120A0985
:101EB300B78805120A09488905120A09808905129B
:101EC3000A09C28905120A093C8B05120A09C58C45
:101ED30005120A09FB8E05120A09298F05120A0940
:101EE300558F05120A095E8F05120A09B48F051270
:101EF3000A09449005120A094B9305120A09CF9364
:101F030005120A0979E106120A098FE106120A0984
:101F130099E106120A09E9E106120A095CA606120A
:101F23000A0975A606120A091AA706120A095AA768
:101F330006120A0973A706120A09A7A706120A09B5
:101F4300F4A706120A0928A806120A096AA80612A3
:101F53000A0940AA06120A09ABAA06120A09BDD841
:101F630006120A0917D906120A0970D906120A09B4
:101F730017E206120A0959E206120A099BE206123F
:101F83000A09ABE206120A099BA804120A09F6A879
:101F930004120A0996A904120A09AEAA04120A092C
:101FA3009AAB04120A0967AC04120A097CAC041246
:101FB3000A09C6AC04120A091DAD04120A0989AD47
:101FC30004120A099CAD04120A09F4AD04120A09A9
:101FD30063AE04120A097BAE04120A0912B1041299
:101FE3000A090EB204120A0969B204120A09BDB23F
:101FF30004120A09D9B404120A0929B504120A09F8
:10200300AAB504120A097CB604120A09B5B6041269
:102013000A09D4B604120A091FB704120A0935B70C
:1020230004120A094CB704120A097BB704120A09FD
:102033008DB704120A097CB804120A0987B804127E
:102043000A090CB904120A0964B904120A09B0B9DD
:1020530004120A09E7BA04120A0918BB04120A098E
:1020630094BD04120A09C5BD04120A09E0BE041294
:102073000A090FBF04120A0987BF04120A0949C0DB
:1020830004120A097DC004120A09EDC004120A09E8
:10209300CAC104120A0903C204120A090DC20412B6
:1020A3000A0910C204120A091AC204120A0936C222
:1020B30004120A09B2C204120A09EBC204120A0981
:1020C30007C304120A0933C304120A096EC30412B4
:1020D3000A0989C304120A0993C304120A09C2C371
:1020E30004120A09D8C304120A09F4C304120A0920
:1020F30023C404120A0943C404120A098CC4041237
:102103000A09D5C404120A09DFC504120A09FBDB54
:1021130006120A090CDC06120A0995DC06120A09E2
:10212300008006120A094F8006120A090D82061260
:102133000A09E08306120A091E8406120A09F484B6
:1021430006120A09F98506120A091B8606120A09EC
:10215300778606120A09F88606120A090080041215
:102163000A09228004120A09748104120A09BD8132
:1021730004120A09368204120A09B18204120A09F6
:102183001A8304120A09618304120A09CF83041211
:102193000A09748404120A09FA8404120A093685A6
:1021A30004120A098A8904120A09988B04120A097B
:1021B300CB8B04120A090A8C04120A09178D041224
:1021C3000A09009004120A09AA9004120A095592F6
:1021D30004120A09889304120A099E9404120A0934
:1021E300139504120A09DF9504120A09769604125C
:1021F3000A09869604120A093D9704120A0973987C
:1022030004120A09B79A04120A095A9D04120A0908
:10221300389E04120A09759F04120A09BAA204120D
:102223000A09CAA204120A0901A404120A09B4A4DD
:1022330004120A09E5A504120A0953A604120A099D
:102243008AA704120A09DFA704120A09BAE30412CF
:102253000A0961E404120A09D3E404120A09E3E453
:1022630004120A0965E504120A09BCE504120A0905
:10227300B1E604120A09D8E604120A097DE704123A
:102283000A09CCE704120A092AE804120A0985E8B4
:1022930004120A0960EB04120A0919EC04120A0970
:1022A3007EEC04120A0911EE04120A09B1EE0412BB
:1022B3000A094AEF04120A09A7EF04120A091DF0DA
:1022C30004120A0919F104120A090CF204120A0988
:1022D30065F204120A097BF204120A099CF2041241
:1022E3000A09DBF204120A096BF304120A09AEF4B9
:1022F30004120A096BF604120A09B5F704120A0953
:10230300EFF804120A09FAF904120A099AFA0412F4
:102313000A0909FB04120A0926FC04120A09AAD7AE
:1023230003120A0913D803120A095BD803120A0914
:102333009FD803120A0912D903120A096CD903128E
:102343000A09A7D903120A0941DA03120A099BDA17
:1023530003120A0907DC03120A0980DC03120A09C3
:10236300AADC03120A09BEDD03120A09D2DE031234
:102373000A09FADE03120A09F8DF03120A0909E05F
:1023830003120A091FE003120A0920E103120A09D2
:1023930043E103120A0910E203120A0938E20312A5
:1023A3000A094FE203120A0975E203120A09B0E2AD
:1023B30003120A09D0E203120A09F7E203120A0917
:1023C3000FE303120A09F2E303120A0955E40312A5
:1023D3000A09BAE503120A0938E603120A095CE698
:1023E30003120A0973E603120A0947E703120A09EB
:1023F300E0E703120A0906E803120A095BE903127C
:102403000A0979E903120A09F4E903120A092AEA13
:1024130003120A0967EA03120A09FDEA03120A0909
:1024230069EB03120A094DEC03120A092BEE03129E
:102433000A0900EF03120A094CEF03120A0957F0C5
:1024430003120A0975F103120A0993F203120A0926
:10245300A1F203120A099BF303120A093DF40312C2
:102463000A0986F403120A099BF403120A09ADF55B
:1024730003120A094EF603120A09ACF603120A09FB
:10248300509206120A098D9206120A092693061221
:102493000A09319406120A09799606120A09F59671
:1024A30006120A0959BD06120A0987BE06120A094D
:1024B3004FBF06120A09A4BF06120A0927C0061253
:1024C3000A0931B306120A099FB406120A09ADDEDE
:1024D30006120A09BEDE06120A095EDF06120A099F
:1024E300F2FF01120A09D87F00120A09EEDC061274
:1024F3000A09FEDC06120A0916DD06120A09CADDFC
:1025030006120A09F7DA06120A097CDB06120A091F
:10251300E2DB06120A092CE006120A092FE0061272
:102523000A0968E006120A09BBE006120A09CDE0AF
:1025330006120A09D0E006120A09BBAE06120A09FE
:10254300C9AE06120A0942AF06120A0917B00612EB
:102553000A09D6B106120A093BB206120A099EB24B
:1025630006120A09F87F00120A0941CE06120A0967
:1025730079CE06120A09CACF06120A094ED00612EC
:102583000A0947C906120A09E8C906120A0919CA3B
:1025930006120A0964CA06120A0928CB06120A0996
:1025A3005BCB06120A0981CB06120A0993CB0612EA
:1025B3000A09A7CB06120A09B5CB06120A09C88C69
:1025C30006120A09F48C06120A099B8F06120A09DD
:1025D300F08F06120A092C9006120A09409006127F
:1025E3000A09599006120A094C9106120A092892FF
:1025F30006120A093C9206120A0970D306120A0946
:1026030094D306120A09ADD306120A09ECD30612B3
:102613000A091FD406120A094FD406120A0959D40B
:1026230006120A09C1D406120A09C4D406120A09F9
:10263300CED406120A09DBD406120A09A1C6061271
:102643000A09C9C606120A090AC706120A0928C7CF
:1026530006120A0943C706120A09ABC706120A097A
:10266300B7C706120A0916C806120A093AC806129B
:102673000A09FBC806120A0908C906120A0919C978
:1026830006120A09B5E206120A09CDE206120A0980
:10269300F3E206120A09769706120A09C897061288
:1026A3000A09119906120A09179906120A092E999D
:1026B30006120A094F9906120A09659906120A09B0
:1026C300799906120A09F89906120A095D9A0612FF
:1026D3000A09E59A06120A095E9B06120A09379C43
:1026E30006120A09479C06120A09569C06120A0991
:1026F300E0E006120A0904E106120A092CE10612B7
:102703000A0954E106120A09E2C306120A094EC471
:1027130006120A096DC406120A09D3C406120A096D
:102723000F7D00120A09287D00120A093F7D00125D
:102733000A09487D00120A09667D00120A09707DA4
:1027430000120A097A7D00120A098D7D00120A0916
:102753001A7E00120A09897E00120A09B77E001246
:102763000A09087F00120A09547F00120A096F7FC1
:1027730000120A09797F00120A098A7F00120A09E6
:10278300CD7F00120A093CE306120A0987E3061209
:102793000A096FD805120A099BD805120A09B9D884
:1027A30005120A09CCD805120A09E7D805120A0945
:1027B30046D905120A0974D905120A0980DD0512E2
:1027C3000A09C2DE05120A09F4DE05120A095FDFEF
:1027D30005120A09E3E005120A090BE105120A09C9
:1027E30020E105120A0930E105120A0970E1051218
:1027F3000A09B2E105120A09C2E105120A0985D7DD
:1028030006120A0995D706120A09B3D706120A094E
:10281300CED706120A09F5D706120A0916D80612E8
:102823000A0930D806120A0968D806120A098BD891
:1028330006120A0978DF06120A09BEDF06120A0920
:1028430054B606120A0964B606120A0982B70612BA
:102853000A09B4B706120A09D6B706120A09FEB75F
:1028630006120A0917B806120A0953B806120A090A
:10287300BCB806120A09F8B806120A093FB90612CB
:102883000A096CB906120A0998B906120A09E1D1B4
:1028930006120A0918D206120A0940D306120A09B7
:1028A30043D306120A09E4D906120A0956DA0612B4
:1028B3000A0994DA06120A09D5DA06120A09F2E1BC
:1028C30005120A09F8E105120A093FE205120A098D
:1028D3004BE405120A097BE405120A09E5E4051233
:1028E3000A09A0E505120A09E7E505120A091AE62D
:1028F30005120A09A4E605120A09BBE605120A092C
:10290300C8E605120A09D2E605120A0972E8051299
:102913000A0964E905120A09C2E905120A094DF711
:1029230003120A0963F703120A0915F803120A09C5
:102933003FF903120A0934FA03120A09CBFA031204
:102943000A0906FB03120A0978FB03120A09D6FBDC
:1029530003120A09E6FB03120A090DFC03120A0912
:102963005FFC03120A09CEFD03120A09D3FD031209
:102973000A09F5FD03120A0971FF05120A099FFFEF
:1029830005120A09D4FF05120A09D6FF05120A091E
:10299300D8FF05120A09E9FF05120A09EBFF051220
:1029A3000A09EEFF05120A0958D006120A09C6D011
:1029B30006120A09E8D006120A0920D106120A09EA
:1029C30056D106120A09B9C006120A09FCC006123A
:1029D3000A091AC106120A094DC306120A0981C35C
:1029E30006120A09ACC306120A0993E306120A097E
:1029F300B0F105120A0993F205120A097BF30512D5
:102A03000A098CF305120A099DF305120A09E9F371
:102A130005120A09D8F505120A0933F705120A093E
:102A230063F705120A092EF805120A098BF8051235
:102A33000A09B8A705120A096AA805120A09E5A82E
:102A430005120A0970A905120A09B6A905120A098D
:102A5300C8AB05120A0960AC05120A09D0B1051208
:102A63000A09CDB205120A095AB305120A097FB33E
:102A730005120A094DB405120A09C0B405120A0960
:102A8300DFB405120A0903B505120A092AC704129D
:102A93000A099FC704120A093DC804120A0958C942
:102AA30004120A090ECA04120A0975CA04120A0991
:102AB300B9CA04120A0960CB04120A092FCC041202
:102AC3000A0971CC04120A09C0CC04120A0978CD90
:102AD30004120A0956D004120A0948D104120A0939
:102AE3008BD404120A0962D504120A09F6D6041219
:102AF3000A0925D804120A0900D904120A090BDBB2
:102B030004120A099BDD04120A09BEDD04120A0934
:102B1300D9DD04120A0931DF04120A09D4DF0412D1
:102B23000A0913E004120A0948E004120A0909E138
:102B330004120A09DBE204120A09B7FB02120A09AA
:102B4300DCFB02120A0920FC02120A0946FC0212EB
:102B53000A0968FC02120A0980FC02120A0998FC9D
:102B630002120A09B0FC02120A0956FD02120A09EE
:102B730098FD02120A09A2FD02120A09B7FD021208
:102B83000A09BEFE02120A09D9FE02120A09E2FE6E
:102B930002120A09EBFE02120A09F4FE02120A09E2
:102BA300FEFE02120A097BFF02120A098CA1061219
:102BB3000A09D1A506120A09EDA506120A09F2A50A
:102BC30006120A09ECB906120A0902BA06120A0920
:102BD300ACBB06120A09D6BB06120A091DBC0612B3
:102BE3000A092ABD06120A09E5D406120A0901E4F4
:102BF30006120A09C6FF01120A095DA302120A0995
:102C030027A302120A09E7A202120A09B5A20212B5
:102C13000A0926A202120A09D8A002120A095EA012
:102C230002120A099B9F02120A09919E02120A09C3
:102C3300489E02120A09229E02120A095E9D02128E
:102C43000A09A89B02120A09489B02120A09199B46
:102C530002120A09169B02120A09DC9902120A09D6
:102C6300C89802120A09889702120A09BA96021230
:102C73000A09329602120A09529502120A09B994F4
:102C830002120A09139402120A09D59302120A09BD
:102C93003B9302120A09D4AA02120A094CAA02128D
:102CA3000A0999A902120A0948A702120A091DA7CB
:102CB30002120A09BEA602120A092FA502120A0964
:102CC300FA9202120A099D9202120A096A920212E8
:102CD3000A09FE9102120A09BDA402120A09CB9144
:102CE30002120A09709102120A093F9102120A099B
:102CF300088E02120A0989A402120A091A8D021205
:102D03000A095BEA02120A09D48B02120A09808BB0
:102D130002120A09748B02120A09DB8A02120A09D7
:102D2300A98902120A09FA8602120A099D8402126B
:102D33000A09518402120A09368302120A09CB8254
:102D430002120A09F38102120A09AF8102120A0967
:102D53006B8002120A09328002120A0900800212F1
:102D63000A09E97F00120A09ED7F00120A095EA42D
:102D730002120A09EB7F00120A0925E10200000092
:102D830080FB8F0001001909870001001809240046
:102D93000200F31025000200F51026000200F710D0
:102DA30027000200F91028000100FB102900010090
:102DB300FC1084000400FD108600010001112A00AC
:102DC300010002112B00010003112C000100071167
:102DD3002D00080000092E00010008112F0001003A
:102DE3000911300001000A11310001000B113200FA
:102DF30001000809330001000909340001000C1126
:102E0300360001000A09380001000D1139000100E4
:102E13000611830002001F116300010015096400FD
:102E2300010004116500010005116D000100160980
:102E330071000800F808660001001E11430001003C
:102E43000F11440002001011450001001211460049
:102E530002001311470008000D0948000100151175
:102E63004B0001001611040001002111A100010013
:102E730024113700010023118800010022113C00B6
:102E830001000B093D0001000E114900020017115A
:102E93006700010017094D00020019114E000100DF
:102EA3001B114F0002001C113E0001000C09000021
:102EB300000000000001363601010001020100019B
:102EC30003010001040106060502000007010034A6
:102ED3000801000F090401010D0100FF0E080000A5
:102EE30017020000190100FF1A0100011B0100FE77
:102EF3001C0100081D0200001F0100012001000148
:102F0300210200002301000F24020000260100011A
:102F130027010008280200FF2A0100072B010240B5
:102F23002C0100002D0100012E0100012F0100FFE3
:102F330030010B1C310800003A0100083B01000F6F
:102F43003C0100013D0100FF3E040000420400007B
:102F5300460400004A0400004E040000520400002E
:102F6300560400005A0400005E20FFFF36000100F3
:102F7300060000000F000000000000000000000039
:102F8300000003FFFF00000403FFFF0000FFFF0F2B
:102F9300F4010005C4040320000100000B0000003D
:102FA300000000000003010F00000000000000000B
:102FB300000000000000000000000000000000000E
:102FC30000000000000000000000000000000000FE
:102FD30000000000000000000000000000000000EE
:102FE3000000000000000000000001037103010362
:102FF300010301030103010322030203010310037D
:103003000003000300030003000300030003420363
:103013000003240306030003000304031203250330
:103023002303250323030403040300030003000312
:103033004403000300032303000365032100350356
:1030430081030003050300030003000300032503BA
:1030530023030302710230016002110270020102B4
:10306300020202028002100261023A00410063027E
:10307300730272026202430200021302380000026A
:103083000002040212020002000200020002040213
:103093000402370037003C024402000239000002F8
:1030A300000265020002350281020002050282026B
:1030B3008302000203007100300160001100700000
:1030C300310220035004800010006100000014004E
:1030D30063007300720062004300000013000600E7
:1030E30000000000040012000000000000000000C7
:1030F30004000400370037003C02440000000000D5
:10310300000000006500000035008100000005009C
:10311300000083000000010171010101010111019F
:1031230001013101010101018001100161013B0035
:103133001400630173017201620143010001130171
:1031430006013D01350004011201000100010001E7
:10315300000104010401330133013C014401320144
:103163003600000100016501000135008101000105
:103173000501820183010001030471040204600458
:103183001104700402040204010402041004610423
:10319300000414046304730472046204430400040B
:1031A30013040604000400040404120400040004CD
:1031B30000040004510464000004000400044404F7
:1031C30000040004000400046504000435048104C1
:1031D30064000504000483040004000000000000F0
:1031E30000000000000000000000000000000000DC
:1031F30000000000000000000000000000000000CC
:10320300000000000000862A322A000000000000AF
:1032130000000000000000000000000000000000AB
:10322300000000000000000000000000000000009B
:1032330000000000000000008E221300FE210100A8
:103243008E22020080210300862104008C210500C8
:10325300922106009E213000C2213100BC213200A0
:10326300CE213300D4213500DA213400E0213600A9
:10327300E6211100F2211400F8211500B0211F00EE
:10328300B621FFFF00000132120668120862120B1A
:103293008012109C110A9212023812055612073E30
:1032A300120C1A120D261264920FFF000007ECFD98
:1032B300FDFDECDCDCCCBCACAC9C9C8C7C7C6C6CF9
:1032C3005C5C5C4C4C3C3C2C2C1C1C03EAF5E5D5AB
:1032D300D5C5B5A5959585857575656555554545DB
:1032E3003535252515150500160F00000B150B02A6
:1032F3000002220F3300000E5A6967426565416C74
:103303006C69616E6365303901030507090B0D0FA5
:1033130000020406080A0C0D303017181921301B5F
:103323001D1F30303016181920231A1C1E300003BD
:103333004A49434E181A2505020001191618161694
:10334300182303000C0E020B040B0A0708000F00DE
:10335300393D3F373C3C362C442D02040201010128
:10336300010902E803000000BE040A7F0000000018
:10337300003C003C00E8030E000C0A0308080800A8
:1033830004000CFF1E1E090503010C04040910159B
:10339300050328E4F0A3F0A3F022A3123396A3F0CD
:1033A300227F0C02075FE0F508E4F509F50AF50B47
:1033B300227401F090099EE0640F227409120A54EA
:1033C3007F0402075FE0FAA3E0F9EA22A3A3E02463
:1033D300F5C39412229009BE12586B7A147B002213
:1033E300C082C0839005EF7410F0A37416F0A37429
:1033F30022F0A37416F09005F374F8F0A37415F09B
:10340300A374F2F0A37415F0A3742EF0A37416F052
:10341300A37434F0A37416F0A37428F0A37416F005
:10342300A374E0F0A37415F09005FF7404F0A37483
:1034330016F0A3740AF0A37416F0A374FEF0A37439
:1034430015F0A3743AF0A37416F09006101254C347
:10345300600612572A121E7490060D124BB7740899
:10346300F0A3E4F0A3F09006B0F0900612F07C0B0A
:10347300FDF97A137B06121DB47C0B7D0079007A6B
:103483001E7B06121DB4024BC074F71204F974F7C5
:10349300120AD2EAFEEBFF1249E0740512355974A1
:1034A30003F0EE2402FAE43F123533242DFCE43F0B
:1034B300FD8C828D831236801235426008123DA640
:1034C30074FFF0A3F0EE242BE43F1C1CFD8C828DD3
:1034D30083A3E0C0E08A828B83124A00D0E01235D6
:1034E30042888289831251E92403125D281228B885
:1034F3007408120CFD7403F09009B312086574028A
:10350300120AB27903EEFAEFFB1217DE7402120A03
:1035130054E9F5087007EEFAEFFB1216B2A9087426
:1035230009023DB6F582E43FF583126CFC1251DECD
:10353300FB8A828B83123551E8F0A3E9F0EE221265
:103543005F65123551E8F0A3E9126523E0221236D4
:103553003F8A828B8322F0A3E4F012356122EE24AA
:103563000DF582E43FF5832274F11204F9EAFEEBD0
:10357300FF8C088D09890A1236558A828B8312368D
:103583003F740F120CFD12366EE824FF18E934FF66
:10359300F988828983E50A1236609009B812365D8C
:1035A3009009B712365D7411120CFD12366EEE24BB
:1035B30004FCE43FFD880B8A828B83E0F50C8C824C
:1035C3008D83E0250CC3950B125F61E8F0A3E9122C
:1035D300495CA3A3A3A3A3A3A3A3E064037008125A
:1035E3004CB3F0A3E480061249E0E4F0A312355C87
:1035F3007409F0750C13750D06750E00780C120A1C
:103603003D123649121DA87403120A54750CFF7536
:103613000DFF780C120A41AC08AD097903EEFAEFFD
:10362300FB1217DE7402120A54E9F5087007EEFA6A
:10363300EFFB1216B2A9087F0702075FE024FFF829
:10364300A3E034FFF9227C0B7D00EE2418FAE43F5B
:10365300FB22EE2402FAE43FFB2212368012366488
:1036630022F0E824FF18E934FFF922E0F50CA31255
:10367300368012366488828983E50CF022E08882E2
:10368300898322C082C08390062FE0C3940840043C
:1036930074078001E08A828B83F033333354F8F963
:1036A300024BC074F01204F9EAFEEBFF890B8C0E97
:1036B3008D0F750A00A2AFE433F50CC2AF90062953
:1036C300803F12378E503712379F64037030EE24D9
:1036D300F9FEEF34FFFF850882850983A3A3E02465
:1036E30005FCA3E03400FDEEFAEFFB1228B8EE244C
:1036F300FF1EEF34FFFF7410250AF50A150B12495C
:1037030029126CF8E50B6006E508450970B4E50C71
:10371300A2E092AFA2AFE433F50CC2AF90062980CA
:103723002C2402FAE43509FB8A828B83125F50242E
:1037330006F582E438F5831237AC8A828B8312371D
:1037430094A3A31237AC050A150B12492912493E5B
:10375300602212379F640270F112378EE50840C170
:10376300123A85A2E550E3850E82850F837401F03A
:10377300E50B70D6E50CA2E092AF8E828F83E50A4B
:10378300F0EE24FFFAEF34FFFB8035123A92A2E603
:10379300221237982212633BA3A3A32285088285B2
:1037A300098312633512598022E08E828F83F0EEF3
:1037B30024FF1EEF34FFFF221218BC7404120A54B4
:1037C3007F0802075F74EC1204F974F5120AD289B8
:1037D300138A128B0F851882851983E4F004120A69
:1037E300AA1215C290099DE0292434F50CFA7B0036
:1037F300121DCC8A088B09EA4509700302394DEA88
:103803002402F50AE43509F50BEA250CF8E43BF943
:10381300850A82850B831253EAEA2404F510E43502
:1038230009F511851082F583E4F090099DE0FAF81B
:10383300C3E498F895E0F9850A82850B83E028FEB6
:10384300A3E039FF90099B125C03750E00780C12FC
:103853000A3D8A0CAC0C7D00EEFAEFFB121DA87436
:1038630003120A54AC18AD197401120CFDE0F9EE01
:1038730024FFFAEF34FFFB1215C88A0C8B0DAE0C34
:10388300AF0D8E828F83E41237B1E50FC454F0F984
:103893009006B1E0C4333354C0F8900997E0A2E036
:1038A300E43313134849440F1237ADE512C454F0FF
:1038B30045138E828F83F0EEF8850A82850B83E0B1
:1038C300FA851082851183E02AC398F0850A8285E0
:1038D3000B83EEF0A3EFF0123959E4F0A3F0123AA0
:1038E30079E4F0740A120CFDE4F0750C1E750D06F4
:1038F300780C120A3D7C0B7D00E5082418FAE435A8
:1039030009FB121DA87403120A54851882851983B2
:10391300E06007123959E04408F0E4F50AF50B7842
:103923000A120A417404120AB2ECFEEDFF1217C622
:10393300EEFCEFFDAA08AB091217DE7402120A545B
:10394300E9AA08AB096007121DD27A007B00740B49
:10395300120A540233A4E508240EF582E43509F56E
:10396300832274F31204F98A0A8B0BA2AFE433F5B2
:103973000CC2AF750800750900900629802C123B14
:10398300A85024850A82850B83A3A3126DF98E8226
:103993008F83A3A312572D1217CCE9600A1239C9DA
:1039A300C2E6F08E088F09123B9D123E4770CFE5A9
:1039B3000845096006123A8ED2E6F0E50CA2E092C1
:1039C300AF7F0502075F1239CD22125BF0E022744C
:1039D300F01204F9EAFEEBFF8C0C8D0D750E00A2BC
:1039E300AFE433F50FC2AF750800750900900629DF
:1039F3008020850A08850B09123A8ED2E4F0E50887
:103A0300123A85D2E7F0E50A24FBF582E50B34FF91
:103A1300F583E0F50AA3E0F50BE50A450B6040E505
:103A23000A124810350BF583E0A2E750D9850A82C4
:103A3300850B83A3A3120865AC0CAD0DEEFAEFFB67
:103A43001217D27402120A54E960BBE508450960F3
:103A5300A1123A79E064017006123A9DD2E4F0E5CE
:103A63000FA2E092AFE508450960061216AC750E89
:103A730001A90E0237C3E508240DF582E43509F5E3
:103A8300832212483E3509F583E022123A9222E559
:103A9300081248143509F583E022850882850983D5
:103AA300126335E02274F21204F974FE120AD2751D
:103AB3000C00750D00851882851983E4F0A3F0A22C
:103AC300AF33F50AC2AF900629E0FEA3E0FF8035CD
:103AD300EE24FBF582EF34FF126CF6780C120A41E8
:103AE300EEFCEFFD7A297B06121E027402120A54C1
:103AF300EEFCEFFDAA18AB19121DF0AE08AF09904A
:103B0300062FE014F0EE4F602B123BA8501DEE245D
:103B13000BF8E43FF988828983E024FFF0A3E034C3
:103B2300FFF0888289831254C360A58E0C8F0D1217
:103B33003B9D8095E50AA2E092AF90062FE06031AD
:103B430090099EE0640F60069006B0E070237A0748
:103B53007B061218C89081A612085D7A077B0612AD
:103B630018BC7404120A54800874F0124DED121636
:103B7300A0AA18AB19121DF68A0A8B0BAE0AAF0B5B
:103B8300EE4F60131215D41239C9A2E28E828F83CD
:103B9300A350D674E980D4023E4FEE24FBF582EFA6
:103BA30034FFF583221239CDA2E72274F71204F908
:103BB300EAFEEBFF1215D41249FD120679E96401FE
:103BC3009009BA700AE02401F8A3E034008004E00D
:103BD300F8A3E0F912503D1253EA90062FE070214A
:103BE30090099EE0640F70197A077B061218C8903B
:103BF30081A612085D7A077B061218BC7404120AA8
:103C030054E5A8F8C2AF90062FE004F0E80257AEDF
:103C130074F71204F9EAFEEBFF123C49F01215D4D3
:103C2300EEFCEFFD7A297B06121DFCE5A8F8C2AF76
:103C330090062F12457890099EE0640F700579086D
:103C4300121772024C5E1239CDC2E42274F71204C9
:103C5300F974EA120AD2EAFEEBFF900997E060409A
:103C63008518828519837401F0120CFDE4123D1F3F
:103C7300120CFDAA82AB831228B88E828F83123A6C
:103C8300A3C0E0740A120CFDD0E0125F6B740B1238
:103C93000CFDAA82AB831217F6AA18AB19122BAC30
:103CA3007416023DB674F71204F9EAFEEBFF12151F
:103CB300B674DC69601E74DD69601974E4696014AC
:103CC30074F369600F74DE69600A74DF69600574F8
:103CD300DB697007EEFAEFFB121778024C5E74F79C
:103CE3001204F974EB120AD2EAFEEBFF85188285FF
:103CF30019837406123D1F120CFDAA82AB8312288E
:103D0300B8125F70740A120CFDAA82AB831217F605
:103D1300AA18AB19122BAC7415023DB6F0EE24139E
:103D2300FCE43FFD74022274F71204F974F7120ADB
:103D3300D2EAFEEBFFEE242D1249F5606312461022
:103D4300AA18AB191228B87408120CFD7403F0906A
:103D530009B3120865123DA61208659009C6E0F979
:103D63007404120AB2EEFAEFFB1215BC7404120AC1
:103D73005474DC69602374DD69601E74E46960193E
:103D830074F369601474DE69600F74DF69600A7428
:103D9300E869600574DB697007EEFAEFFB121778C8
:103DA300023522EE123DAB22242BF582E43FF5834C
:103DB300227403120A54024C5E74F21204F98A0844
:103DC3008B09750A00750B00750CE7A2AFE433F598
:103DD3000DC2AF90062980078E0A8F0B123B9D12EE
:103DE3003E476038123BA850EF1249F2640170E875
:103DF300EE242F1249F5F88A828B83A3A3E068701F
:103E0300D7780A120A41EEFCEFFD7A297B06121ECF
:103E1300027402120A5490062FE014F0E50DA2E09A
:103E230092AFEE4F6013EEFAEFFB1215D479F0EE7A
:103E3300FAEFFB121778750C00A90CAA08AB09124C
:103E43001778800DE0FEA3E0FFEE4F227402120A02
:103E5300547F0602075F74F41204F974F7120AD24E
:103E6300EAFEEBFF8E828F83A3E064F37003023FCD
:103E7300038E828F83A3E064DF7003023F038E828D
:103E83008F83A3E064E860788E828F83A3E064DB92
:103E9300606E121616E9F508705EEE240E1249F5EF
:103EA3006056123F0D12165EEA4B604C7408120CFA
:103EB300FD123F171208657508FF7509FF78081290
:103EC3000A418E828F83A3A3A3A3A3A3A3A3E0F991
:103ED3007404120AB21215BC7404120A54E9F508E8
:103EE30074F36508601274DF6508600C74E8650894
:103EF300600674DB6508700F8E828F83A3E508F07C
:103F0300EEFAEFFB1216220233BEEE240FFAE43F61
:103F1300FB790922740212678074FFF0A3123F2415
:103F230022123F28221251F2A3A32274F11204F9A0
:103F3300EAFEEBFF7508008E828F83A3A3A3A3A3DE
:103F4300A31233CF40037508E88E828F83A3A3A304
:103F5300A3A3A3A3A3A3A3E0C3941040057508E8F8
:103F630080138E828F83A3A3A3A3A3A3A3A3A3A33B
:103F7300E0640F600B90068DE0540870037508E849
:103F8300EE240B1249F5F88E828F83A3A3A3A3A378
:103F9300A3A3A3A3A3E0C398500DEE240B1249F5EA
:103FA300640F60037508E89009B7E0F47003A3E0B9
:103FB300F470037508EC7A237B00121E6E900610D2
:103FC30012573D9006101254C360278E828F83A32D
:103FD300A3A982AA83890C8A0D750E00780C120A94
:103FE3003D7C237D0012572A121DA87403120A5424
:103FF300800375081A02363874F51204F9EAFEEBE9
:10400300FF8E828F83A3A3A3A3A3A3A3A3E09009FB
:104013009E1266639009B9126649900999126668FF
:104023009006B1F0F91227329006B1E06018EE2441
:1040330004FAE43FFB795012271AEE2406FAE43F10
:10404300FB79E112271A9006B01233B460047401AD
:104053008001E490061212664F120A3D7C0B7D002C
:104063007A137B06121DA87403120A54EE2418F562
:1040730008E43FF5097808120A3D7C0B7D007A1E9F
:104083007B0602691974F71204F9EAFEEBFF8E82CC
:104093008F83A3E0700612572A12161C8E828F8319
:1040A300742C124DED121790024C5E74F71204F942
:1040B300EAFEEBFF9006101254C3600D12572A90CC
:1040C3000610E4F0A3F0121E748E828F837408121C
:1040D3004DED122BAC024C5E74F61204F99006B04F
:1040E300E06013900612E0700D1240FC1215CEEA48
:1040F3004B60031216B20269EB900999E0FB900939
:10410300B9E0FA90099EE0F92274F41204F974E715
:10411300120AD2EAFEEBFF750B018E828F83A3A3F3
:10412300A3A3A3A3A3E0A2E25070EE242BF582E4A1
:104133003F126DF71241D21215DAE9705D908101D9
:10414300E06401700DEE241B124DD47005750B0055
:1041530080481241DA120A3D7C0B7D007411120A69
:10416300AA121DA87403120A541217C6E9FA740E90
:10417300120AA2880889097808120A41750830755D
:1041830009007808120A41123DA6120865125F2A37
:1041930079011217E47406120A548518828519836B
:1041A3007410123D1F120CFDAA82AB831228AC12AD
:1041B3003DA6125867740B120CFD1253EA740D12CC
:1041C3000CFDE50B124C51122BAC74190233C0EEEB
:1041D3002413FAE43FFB22EE240812665722C0821E
:1041E300C0839006B1E06003121838024BC0C0824E
:1041F300C0839006A874EFF0A37405F0A374F3F0E2
:10420300A37405F0A374FFF0A37405F09010AC74CD
:104213007BF0A37431F090069274B0F0A37415F0A0
:1042230090063474E6F0A37415F090063674ECF03F
:10423300A37415F090068DE044028001E4F0024B74
:10424300C0C082C083EAFCEBFD790302525EC082E8
:10425300C083EAFCEBFD790502525EC082C083791C
:1042630008026412C082C08374FE120AD290063C14
:10427300749AF0A37416F090063E7494F0A3741627
:10428300F0800D7A297B06121DF6124C471217B4E3
:104293009006291254C370EB90062B1254C3600F7F
:1042A3007A2B7B06121DF6124C471217B480E99045
:1042B3000629E4F0A3F090062F12339774028002CC
:1042C3007411120A54024BC074F61204F9E9FF7414
:1042D3005229F582E43433F583E493FEFA7B00122A
:1042E3001DCCEA4B6011EA2E1253E08A828B83A322
:1042F300A3A3A3E4F0802C7A027B00121DCCEA4B2B
:10430300601D741B2FF582E43433F583E4938A82B2
:104313008B83F0A3741AF0900688E0F9121DD87A03
:10432300007B000269EBE9FD740629FCEAA2E05078
:104333001EEC75F00A84A8F0E86014740A2CC39884
:10434300FCE8C394054004740A2CFC740B2CFCEDAC
:10435300C394134004781480027806E82C7900246F
:1043630009F85001097A0A7B00120333E8F9020ABB
:1043730006C082C08390068DE05402600A122BB2FD
:10438300E96004790180027900024BC0C082C083D6
:1043930090068DE05402601690062FE0700C1254C4
:1043A300C0600BE0C81249365004790180027900DD
:1043B300024BC0C082C0839080FEE0F8900631E0DB
:1043C300C3985005121DCC80047A007B00024BC0B9
:1043D300C082C0831217B47900024BC074F7120471
:1043E300F974FE120AD2851882851983EAF0A3EBC9
:1043F30012454EA3A3A3A3A3E0600A14605F24FEA7
:1044030060680244CE90099EE0640F601812178A18
:10441300E9701285188285198312572D9006381278
:104423004A001206799009C6E0C0E0851882851912
:10443300831251BCD0E012454E741412677C126D86
:10444300F97A2B7B06121DF0E5A8F8C2AF9006316E
:1044530012457879201217727402023DB6851882CC
:1044630085198312633D741580D18518828519835C
:10447300124531A3A3E06053851882851983E02494
:1044830002F8A3E03400F988828983126BBDE0C08F
:10449300E0851882851983E0FCA3E0CC2406F5822D
:1044A300E43CF583D0E0125F838882898312573D11
:1044B300851882851983124832851882851983608D
:1044C30013124536600512453E4044AA18AB191233
:1044D30017B4808412453660F212453E501D1249CE
:1044E30046FA851882851983124538F8745C28F5D5
:1044F30082E43433F583E4936A6014851882851962
:1045030083124536640870C3124946640870BC12AE
:10451300494614124556240AC0E08518828519833A
:10452300124A00D0E01245560402443EE0F8A312BA
:10453300520922E0F8A3E012455D2285188285190D
:1045430083125F5412455EC3940A22124568F583B1
:1045530088822212456812455D22C82406F582E44A
:1045630038F583E022126780E0F8A3E022E5A8F89B
:10457300C2AF900630E004F0E8A2E7A2E792AF22D0
:10458300C082C0839006401254C3600812633E1277
:10459300067980027900024BC074F71204F9EAFE2F
:1045A300EBFF1235617401F0EE2430F582E43FF540
:1045B30083125CC812353B24321249F5C0E0EE2465
:1045C30013F582E43FF583D0E0F0EE24331249F58E
:1045D300C0E0EE2414F582E43FF583D0E0F0EE244E
:1045E3002CF582E43FF583120865124610EE242E63
:1045F3001249F5F91217DE7402120A54E9F508702C
:1046030007EEFAEFFB1216B2A908024C5EEE242362
:10461300FCE43FFD22C082C08312178AE96004795B
:104623002080027901024BC0C082C083EA12481085
:104633001246D1D2E0024240C082C0831246CB640C
:104643000170111246D6400C8A828B83A3E0F912C3
:1046530017788071EA24101246CEA2E650128A829D
:104663008B83A3E0F990063A124A0012067980552B
:104673001246CB6401700D1246D650088A828B8392
:10468300743080388A828B83A3E0641B8A828B8395
:10469300700474228026A3E0700E1246CBF87426B1
:1046A30028F582E43433800C1246CBF8741B28F5CA
:1046B30082E43433F583E4938A828B83F090068813
:1046C300E0F9121DD8024BC0EA240DF582E43BF554
:1046D30083E022EA12483E3BF583E0A2E32274F72B
:1046E3001204F9E9FE1254C07003024807EE601188
:1046F300741B6E7013E0C812480A64057003024706
:10470300D212632DE40247D674E96E706212482A0E
:10471300700B122BB8E96005124844606279EE12FF
:104723002690900632124827900632603B12484783
:10473300900632700B12482714F012285E024807C5
:10474300124832C2E712495212480A6403700C122B
:104753005F4D124810124563D2E2F079ED122690B4
:1047630012481A120679807512633074E9806474F2
:10477300E16E703E122BB8E96055124844705090B8
:1047830009C0E0C0E0125F4D2412F582E438F583DE
:10479300D0E0F09009AFE0C0E090063212452F124E
:1047A300452FD0E0F09009AFE004F07901122846DC
:1047B3008052741C6E701890063212572D90064268
:1047C300124A00120679900632E4F0A3F080351203
:1047D300632DEEF090063212572D1216A0125F4D84
:1047E300125F32E0548060109009C6E0F912275638
:1047F3009009C5E0F912274A900632E4F0A3F07954
:1048030010121772024C5E240D12456022124814D6
:10481300222411F582E42290063212573190063693
:1048230012633722E0F8A3E0C8241212456022E0A5
:10483300F8A3E0C812483E124563222410F582E42F
:1048430022900632125F54125F36E054042274F44D
:104853001204F9750A00750B00A2AFE433FFC2AF6F
:104863001254C0600302490E1249FD120679E9444D
:1048730010F8900629800985080A85090B12492931
:1048830012493E700302490E123A8E586870E87856
:104893000A120A41AC08AD097A297B06121E02747A
:1048A30002120A54900632E508F0A3E509124952B0
:1048B300124936405D900630E014F0EFA2E092AF6B
:1048C300900632E0240EF8A3E03400F98808890941
:1048D3008882F58312572D90063212494CF912162D
:1048E30064E990062DF012495AE054809006326034
:1048F30026125F502413124560F9122756125F4D9A
:104903002414124560F912274A8018EFA2E092AFEF
:10491300801190062F80A1124832A2E1B3E433F94B
:104923001228460233C3E50824FBF582E50934FF68
:10493300F583222411124560A2E722126CFCE508DC
:10494300450922851882851983123798A3E022F03E
:10495300900632125F5422A3E4F08508828509830E
:104963002274F71204F9EAFEEBFF1217AEEE2410DD
:104973001249F5A2E3400C1249F2640170059080DC
:10498300FC80039080FDE0F9EEFCEFFD7A297B06C5
:10499300121E08E96037EEFAEFFB90063C124A005C
:1049A300120679EE240E1249F55404701112457063
:1049B3001249E0A3E0540170211216AC801CEEFAF8
:1049C300EFFB900634124A00120679800D8E828F17
:1049D30083A374F1124DED1216A0024C5E1249E44A
:1049E30022EE240EF582E43FF5832234FFF509EE2F
:1049F300240DF582E43FF583E02290063E126337EF
:104A030022C082C0831216AC024BC074F71204F9A1
:104A1300EAFEEBFF790090068DE05402700CEE2461
:104A2300301249F55404600279E890068DE0546031
:104A3300700CEE24301249F55402600279E88E823C
:104A43008F83A3A3A3A3E0F8908102E0C39850024D
:104A530079E8EE242E1249F5700CEE242B1249F559
:104A6300700479F58009E9700312168EE96007EE88
:104A7300FAEFFB121778024C5EC082C0838A828BE6
:104A830083740DF0122BAC024BC0C082C0838A82A8
:104A93008B83E4F0A3F0EA24301246CE54049080D2
:104AA300FC7012E0F8900630E0C398401279F112DE
:104AB3001778024BC0E0F890062FE0C39850EE90B1
:104AC3000688E0F9121DD880E974F61204F9E9FEAC
:104AD300244CFAE43400FB121DCCEA4B6012EE8A3C
:104AE300828B83A3A3A3A3F0EA244C1253E0800494
:104AF3007A007B000269EBC082C08390064474FA9B
:104B0300F0A37416F0A3742AF0A37417F0A374002F
:104B1300F0A37417F0A37406F0A37417F0A374241E
:104B2300F0A37417F0A37418F0A37417F0A374120E
:104B3300F0A37417F0A37430F0A37417F0A37436C2
:104B4300F0A37417F0A3743CF0A37417F0A3744894
:104B5300F0A37417F0A3740CF0A37417F0A374F408
:104B6300F0A37416F0A374EEF0A37416F09006602D
:104B7300741EF0A37417F0A37442F0A37417F0A388
:104B83007480F0A37418F0A3744EF0A37417F0A309
:104B93007454F0A37417F0900684E4F0900687F041
:104BA300900670124BB77402F0900679124BB774EB
:104BB300010242407472F0A37417F0A322D083D091
:104BC30082020A0674F51204F974F1120AD28518E6
:104BD300828519837402F07401120CFDE9F06004FC
:104BE3007AFF7BFF7402120CFD12573D75087C752A
:104BF3000906750A007808120A3D7C0B7D007407CC
:104C0300120CFDAA82AB83121DA87403120A54AAC4
:104C130018AB19122BAC740F02691E74F71204F946
:104C230074FD120AD2851882851983740AF07401FF
:104C3300120CFDE9F07402120CFDEA124C51122B16
:104C4300AC023DB4851882851983EAF0A3EBF0AA80
:104C530018AB1922EEFAEFFB12182C7F0102075F43
:104C630074F61204F974F7120AD2EAFEEBFF124C3F
:104C7300B31235597402124DDEAA18AB191228ACBF
:104C8300EE242E1235272430125D35120A417402A8
:104C9300120AB279831A1AEFFB1217DE7402120A90
:104CA30054E9F5087007EEFAEFFB1216B20269E455
:104CB3001249E474012274F01204F9126807120C09
:104CC300A67808790C1203947808120A397A737B50
:104CD300060237BB74F41204F974C6120AD290099F
:104CE3009EE0640F6010851882851983742E124C20
:104CF3005112179080277A6A7B061218C81233D88C
:104D030012033B88088909E4F50AF50B7808120AAF
:104D1300397A6A7B061218BC7404120A54743A0274
:104D230033C074F51204F9EAFEEBFF8E828F83A37E
:104D3300E0F86003024DBA124DD16007E0640360EE
:104D43000278E8EE2423F582E43FF5831233D14061
:104D53000478E88065E8705FEE2423FAE43FFB798A
:104D6300E112271AEE242EFAE43FFB795012271A98
:104D7300124DD1700E125F201258679009AD125375
:104D8300EA80129009AD74FEF0A304124DDE7AA4FA
:104D93007B091228B8EE24181241DD120A3D7C0B60
:104DA3007D007A7C7B06121DA87403120A54EEFA66
:104DB300EFFB1216E8E9F8E86011E88E828F83A30F
:104DC30012616F7417124DED121790026921EE24D0
:104DD3002DF582E43FF583E0640222F0EE2425FC06
:104DE300E43FFD228E828F837429F0EEFAEFFB22DB
:104DF30074F61204F974F7120AD2900687E0703B36
:104E03007401F0F912280AAA18AB191217C0750811
:104E13007C7509067808120A41750801750900783E
:104E230008120A419009B31208657406120AB27A8D
:104E33000379051217E47406120A540269E674F73B
:104E43001204F9EAFEEBFF79011228108E828F8398
:104E5300E064207004A374EBF0900687E0A2E250B4
:104E630003C2E2F0E0A2E1500812507F1216E28082
:104E73000C8E828F83742A124DED121790024C5EB2
:104E830074F41204F974FE120AD2EAFEEBFF7901FC
:104E93001228107A6A7B061218C87A737B061218D6
:104EA300C81251C88518828519831251FCE0F50B8D
:104EB300700FAA18AB19795312271A1269B7122760
:104EC3001A1241DA120A3D7C0B7D007A7C7B0612B2
:104ED3001DA87403120A5485188285198312572D4D
:104EE300A90B1216DC900687E0A2E1500C7A008E23
:104EF300828F83A3E0F91216E2900687E4F074022E
:104F03000233C074F71204F9EAFEEBFF8E828F833B
:104F1300A374EBF0900687E0A2E150077A0079EBE7
:104F23001216E2EEFAEFFB121718024C5E74F71238
:104F330004F9EAFEEBFF79011228107A6A7B061264
:104F430018C87A737B061218C8900684E4F090069A
:104F530087F07AFF7BFF8E828F83A3E0F91216DC42
:104F6300024C5E74F71204F9EAFEEBFF1217120209
:104F73004C5774F71204F9EAFEEBFF79011228107B
:104F83008E828F83A3A3A3A3E06003E4800274EB68
:104F9300124FC65003C2E2F0E0A2E150081250C71C
:104FA3001216E28014A2E050108E828F83742AF0CE
:104FB300A374EB124DED121790EEFAEFFB1216C429
:104FC300024C5E8E828F83A3F0900687E0A2E222DA
:104FD30074F61204F9EAFEEBFF900687E0D2E1F0E3
:104FE300790112280A8E828F83A3E0703C1217C6C0
:104FF300E9FAEE240DF508E43FF5097808120A41B1
:105003007508017509007808120A4112503D12080B
:1050130065EE2402FCE43FFD79051217E4740612E1
:105023000A54E98E828F83A3F08E828F83A3E0607C
:10503300067A00F91216E20269EB12504122EE24BD
:105043000BF582E43FF5832274F71204F9EAFEEBD1
:10505300FF79011228108E828F83E064207004A3ED
:1050630074EBF0900687E0A2E25003C2E2F0E0A204
:10507300E1500612507F1216E2024C5EC2E1F07A52
:10508300008E828F83A3E0F92274F71204F9EAFEFB
:10509300EBFF79011228107A6A7B061218C88E82F8
:1050A3008F83A3A3A3A3E06003E4800274EB124FF6
:1050B300C65003C2E2F0E0A2E150061250C7121636
:1050C300E2024FBCC2E1123F24A3E0A2E4E433FABC
:1050D3008E828F83A3E0F92274F71204F9EAFEEBC0
:1050E300FF79011228108E828F83A374EB124FCBAA
:1050F3005003C2E2F0E0A2E1500612507F1216E222
:10510300024C5E74F71204F9EAFEEBFF7A6A7B063F
:105113001218C8EEFAEFFB12173C024C5774F71241
:1051230004F9EAFEEBFF7A6A7B061218C8EEFAEF7F
:10513300FB12173C024C5E74F71204F974EF120A67
:10514300D2EAFEEBFF125F2A7AA47B091228A6E9B2
:1051530060628518828519837409F07401120CFD4D
:1051630074EFF01251C8F87402120CFDE81251FCEE
:10517300A3A3E0C0E07404120CFDD0E01251E96473
:105183000870158E828F83A3A31251BCE0C0E07414
:1051930005120CFDD0E080067405120CFDE4125FCD
:1051A3006B7406120CFDAA82AB831217F6AA18AB16
:1051B30019122BAC7411023DB6125F542407F58209
:1051C300E438F583221251DEFB8A828B8312586BFB
:1051D30088828983E0FCA3E0F9EC22EE2402F8E460
:1051E3003FF9E8FAE9221251ED221251F2E022F0DE
:1051F3008E828F83A3A3A3A322F0A3E9125F651278
:10520300520622E0F8A312633EA3A322C082C08306
:10521300121838024BC0C082C0839006A47444F0B5
:10522300A37406F0A37460F0A37406F09010A67440
:1052330019F0A37431F0A37455F0A37430F0900601
:105243009074D6F0A37416F090068DE044010242E8
:1052530040C082C083EAFCEBFD790212179C024B2B
:10526300C0C082C083790602641274F61204F97412
:10527300FE120AD29006891254C360077A897B060C
:105283001217B490068FE4F09007731254C360268C
:105293008007AA18AB191217B4900688E0F9121DFB
:1052A300E48A088B09A808A909851882851983123D
:1052B30053EAE84970DC74020269E874F61204F9EF
:1052C300E9FA7B00900688E0F9121E0E0269EB747E
:1052D300F71204F974F0120AD2EAFCEBFDE9FE8C32
:1052E300828D83E0F8744728F582E43433F583E450
:1052F30093C0E07401120CFDD0E0F0640B700DEE6E
:105303008C828D83A3F012181A0253D3E070030228
:1053130053D3640C60030253C4741A6E700B740489
:10532300120CFDE4F0A30253C37404120CFDECF061
:10533300A3EDF0EC242F1253D8C0E07403120CFD3C
:10534300D0E012651A120CCE7406120CFD120CC2B8
:105353008C828D8312585E740A120CFD1253EAEC90
:10536300240E1253D854106009851882851983E4DA
:105373008013EC24121253D8F89009C0E0C3988527
:105383001882851983F0E0C0E0740C120CFDD0E0A4
:10539300F0EC24151253D8C0E0740D120CFDD0E0CC
:1053A300F0EC24161253D8C0E0740E120CFDD0E0BA
:1053B300F0EC24171253D8C0E0740F120CFDD0E0A8
:1053C300F07402120CFDEEF07401120AAA122BAC57
:1053D3007410023DB6F582E43DF583E022F8E43B28
:1053E300F98A828B83A3A3E8F0A3E9F022C082C0E9
:1053F3008390068FE07004790180027900024BC02C
:10540300C082C08390068FE0600464027004790157
:1054130080027900024BC0C082C08390068FE06493
:10542300037004790180027900024BC074F6120400
:10543300F990068FE01254AD74A428F582741039E4
:10544300F5831259C2C2E7F01254B4A3E493FE25C4
:10545300E0FCE433FD74A42CF58274103D126DF767
:10546300EC4D6005EE90068FF08A828B83E025E099
:10547300FCE433FDE82CF582E93DF583E493F5087C
:10548300C4540F25E0F8749E28F582E43406F583AE
:105493001254C37005121808800DE508540F1254F6
:1054A300B4124A001206790269EB25E0F8E433F9F5
:1054B3002225E0FCE82CF582E439F58322900632BC
:1054C30012586BE8492274F01204F974FE120AD2DE
:1054D300890FEAFEEBFF1255DEFA7B00121DCC8A20
:1054E300088B09EA450960468A828B83E50FF0A39E
:1054F300E4F08E0C8F0DF50E780C120A3D850F0A21
:10550300743C250AF582E43433F583E493FC7D008F
:10551300EA2402FAE43509FB121DA87403120A54A3
:10552300AA08AB09900688E0F9121DD880128518E5
:1055330082851983E50FF0791AAA18AB1912177827
:1055430074020237C074F21204F974FE120AD2898B
:105553000C8A088B091255DEF50DFA7B00121DCC5F
:105563008A0A8B0BAE0AAF0BEE4F60588E828F8385
:10557300E50CF0A3E4F0850D0AEE250AF8E43FF903
:105583008E828F831253E88E828F83A3A3A3A3E417
:10559300F0F50A7808120A3D850C08743C2508F5D5
:1055A30082E43433F583E493FC12364B121DA87462
:1055B30003120A54EEFAEFFB900688E0F9121DD8A5
:1055C30079008014851882851983E50CF0791AAA6D
:1055D30018AB19121778791A023E4F743129F582E4
:1055E300E43433F583E49322C082C083E9900688D0
:1055F30002424074F61204F974FE120AD2EAFEEB78
:10560300FFEE54207031803AE5A8F8C2AF9006311E
:10561300E01412457A8A828B8312572190068B12EB
:10562300573D121790851882851983E0641560072A
:105633007A8B7B061217B47A2B7B06121DF6EA4B84
:1056430070C6EF54807012801C90068B12573D1267
:1056530017907A8B7B061217B4900688E0F9121D17
:10566300E4EA4B70E4EE5410600E851882851983CA
:10567300742D124C51121790EEA2E0500E85188231
:105683008519837424124C51121790EE5402600E44
:105693008518828519837425124C51121790EE5484
:1056A30004600E8518828519837426124C511217D3
:1056B30090EE5408600E8518828519837428124C65
:1056C30051121790EE544060107401120CFD1267D2
:1056D3007B742C124C51121790EE5480601074019D
:1056E300120CFD12677B742F124C51121790900607
:1056F300891254C36021E5A8F8C2AF9006891257F6
:105703002D900689E4F0A312457A12573C121790A4
:105713007A8B7B061217B47A007B000252B9E085BC
:105723001882851983F02290061012573122E0FA6D
:10573300A3E0FB22A3A3A3A3A3A3EAF0A3EBF0227A
:10574300C082C08390068B125867EA687002EB69C7
:10575300700790068BE4F0A3F0024BC074F71204B9
:10576300F9EAFEEBFFEE4F70031224E0A2AFE4333D
:10577300F508C2AF8E828F831254C36028E824FBDE
:10578300FAE934FFFB90068B126DF9E86C7002E9BD
:105793006D700790068BE4F0A3F08E828F83E4F0A4
:1057A300A3F0121E74E508A2E08004A2E7A2E79228
:1057B300AF024C5EC082C0839006B274FCF0A37447
:1057C30017F0A3740EF0A37418F0A37414F0A37469
:1057D30018F0A374BEF0A37416F0A3741AF0A374A4
:1057E30018F0A374B8F0A37416F0A374C4F0A374F0
:1057F30016F09006C07450F0A37418F0A37420F050
:10580300A37418F0A37426F0A37418F0A37432F0F1
:10581300A37418F0A3742CF0A37418F09006B102CB
:10582300423FC082C0839009ADE064FE7003A3E0F1
:10583300F470097CA47D091228AC801C8A828B83B6
:10584300A3A3A3A3A3A3A3A37402F09009AD125827
:10585300678A828B831253EA024BC0A3A3A3A3A339
:10586300A3A3A3A312586B22E0F8A3E0F922C082FA
:10587300C0839009B7C3E094FEA3E094FF4004798A
:105883000380027902024BC0C082C0831259CB8CC1
:10589300828D83125980687039740268701C8A8201
:1058A3008B831258DAE06870298A828B83A312589B
:1058B300DAA3E068701C7901801A7403687013EC32
:1058C3002405FC50010DEA2405FA50010B1228B2FD
:1058D30080027900024BC0A3A3A3A3A3E0F88C82A8
:1058E3008D83A3A3A3A3A32274F61204F97E0074E9
:1058F3000A120CFDE0125974FF8A828B83A3A3A3BF
:10590300A3A3A3A3A3E06F706374026F704D8A8295
:105913008B83C082C08388828983A3A3A3A3A3E0CC
:10592300F50888828983A3A3A3A3A3A3E0FBAA0802
:10593300D083D082E06A7003A3E06B702F888289E2
:1059430083A3A3A3E0FA88828983A3A3A3A3E0F993
:10595300EA6C7002E96D70140E801174036F700CA1
:10596300E82405FCE439FD1228B2E9FEEEF90269E8
:10597300EBF8A3E0F98882898312598022A3E0130C
:1059830013543F540322C082C0838A828B83A3A310
:10599300A3A3A3A3A3A3E0640270169009AD1259B5
:1059A300C2687003A3E06970047901800F790080F5
:1059B3000BEAFCEBFD7AA47B091228A6024BC0126A
:1059C300586B8A828B83E0228A828B83125980F8F8
:1059D3002274EC1204F9EAFEEBFF8C128D13750AA4
:1059E300008C828D83A3A3A3A3A3A3A3A3E0F51099
:1059F300E9A2E75008750CFF750DFF80069009B307
:105A0300125C03E9C2E7F511EE240E1249F55420A6
:105A13006007125BE474088004125BE4E4125C0B1D
:105A230054046007125BEC74808005125BEC741005
:105A3300125C0B54106006125BC9E4800B9009C022
:105A4300E0C0E0125BC9D0E0125C0BA2E05003752A
:105A53000A20540860067410450AF50A8E828F8363
:105A6300A3A3E024FFF508A3E01249EEC39402E0E8
:105A7300400B640B6005E014125C127403450AF5D5
:105A83000A750B009009D3E0640170118E828F8335
:105A9300A3A3A3A3E0C394674003750B1085110E62
:105AA300750F00740E780E120BEEE50F450BF50B18
:105AB3007414120CFDE0F50EA3E0F50F74026511EA
:105AC300700E9009B8125C119009B7125BF880133D
:105AD300740365117012125BD37CC77D09AA08FB9E
:105AE3001228B8125BE08004E5116028E510601409
:105AF300E50E650C7004E50F650D70087440450AEA
:105B0300F50A8010850882850983E50D125C2EE570
:105B13000C125C1885100C750D00740A780C120BAE
:105B2300EEE50D450BF50B740265107015851282B9
