:020000040000FA
:06000000020B120201F7E1
:03002B000207ECDD
:0300430002065959
:0300530002013374
:03006B000207C4C5
:100083000201930101FF01010503010F10FEFFD3DC
:100093002E00000000092E00000000FF000000FFFA
:1000A30000010000BA190000FA18A6180A1B541917
:1000B3006E1AF418E21800000000000000000000AF
:1000C3000000000000000000000000000000FF012D
:1000D3000100AF07000000E803FFFF2A0803E8035D
:1000E30064006400B801020200080000050207046E
:1000F30001051E02051E020A0A0103B80B02803E17
:100103000102FEFFE8030A050001FFFF0A1401E0F4
:10011300965118000206FFFFFF000810E8030A09C2
:1001230001070500015E810164810AD513E1150011
:10013300C0E074F2120477A2AFE433FED2AFE5A7B6
:10014300FFE5A1F5085F541060061224C475A1EF02
:10015300E5085F540860081224CA75A1F78024E5F6
:1001630008A2E092F0EFA2E082F05017906198E0CD
:10017300F8900D60E0C398A2D265D0335002E8F046
:1001830075A1FE751A00EEA2E092AF7F010204D6BC
:10019300C0E074F2120477A2AFE433FED2AF9061F1
:1001A300A4E0F8759B00E59158540860087591F731
:1001B3001225128023E59158541060087591EF12AF
:1001C30025188014E591A2E092F0E8A2E082F050B5
:1001D30007E0C2E0F01226749061A3E0F8E5E95865
:1001E3005404600E12264A75E9FB906193E0A2E67F
:1001F30040F2808FC0E074F2120477A2AFE433FEC2
:10020300D2AF9061A5E0F8E5BF585404600675BF0E
:10021300FB12268C020186C3E498F8E499F91202D2
:100223005B8026C3E49AFAE49BFBE920E7E9120228
:100233005BE498F8E499F922C3E498F8E499F91295
:10024300025BE498F8E499F9C3E49AFAE49BFB228D
:10025300EB20E7CFE920E7E0B90010BB0008E88A0C
:10026300F084F8AAF022E4FBC8FA22EB70227B1098
:10027300C833C8C933C9335007C39AC3DBF28006F6
:100283009A50012ADBEAC833F4C8C933F4C9FA2205
:1002930075F008E4C833C8C933C933C99AC99B5038
:1002A30004C92AC93BD5F0ECFBC833F4C8E4C9FA46
:1002B30022080808EAC0E0EBC0E086F0E7A4FA18D9
:1002C3000986F0E7A42AFA180986F0E7A42AFA189F
:1002D3000986F0E7A42AFA1986F0E7A4FBE5F02AD9
:1002E300FA190886F0E7A42BFBE5F03AFA19088619
:1002F300F0E7A42BFBE5F03AFA18180986F0E7A417
:10030300C5F02BFBE43AFA1908E7C5F0C6A426F6B4
:10031300E5F03BFBE43AFA1886F0E7A4F6E5F008CB
:1003230026F6E43B08F6E43A08F6D0E0FBD0E0FA20
:1003330022E4CFC0E0E4CEC0E0E4CDC0E0E4CCC032
:10034300E075F020E626F608E633F608E633F6080D
:10035300E633F6181818EC33FCED33FDEE33FEEFFD
:1003630033FFC3EC9709ED9709EE9709EF97191936
:1003730019400FFFEC97FC09ED97FD09EE97FE1965
:100383001906D5F0BFECF709EDF709EEF709EFF71A
:10039300191919D0E0FCD0E0FDD0E0FED0E0FF2237
:1003A3002518C582C0E0E51934FFC583C0E0E51810
:1003B300C3958224F810AF088583198582188008B5
:1003C300858319858218D2AFCEF0A3E520F0A378F8
:1003D30008E608F0A3DEFAEFF0A3E58124FAF8E6D5
:1003E30008F0A3E608F0A3E608F0A30808E608F07F
:1003F300A3E608F0A315811581D0E0FED0E0F8153F
:100403008115811581E8C0E0EEC0E022120B8CB9A2
:100413000003020461E49004D1787779118002F03B
:10042300A3D8FCD9FA781A9000867A01BA00028020
:1004330007E493A3F608DAF97A477B1590008778E7
:10044300AD79018015E493A3AD82AE838A828B8359
:10045300F0A3AA82AB838D828E83D8E9D9E7758214
:10046300D97583AC74061208B075829C75832B749E
:10047300001208B0C0D02518C582C0E0E51934FFCA
:10048300C583C0E0E518C3958224F310AF088583C4
:10049300198582188008858319858218D2AFC8F020
:1004A300A3E9F0A3EAF0A3EBF0A37908E709F0A32B
:1004B300D8FAECF0A3EDF0A3EEF0A3EFF0A3D0E0B5
:1004C300F0A3D0E0F0A3D0E0F0A3E520F0A3E5F0A3
:1004D300F0A322851983851882E0C0E0A3E0F9A385
:1004E300E0FAA3E0FBA37808E0F608A3DFFAE0FC58
:1004F300A3E0FDA3E0FEA3E0FFA3E0C0E0A3E0C010
:10050300E0A3E0F5D0A3E0F520A3E0A3F5F010AF5E
:10051300088583198582188008858319858218D2F6
:10052300AFD082D083D0E0F8D0E032E47375F0101E
:100533008E218F22858226858325851882851983BE
:10054300E0CEA3E0CF852682852583EBC9EAC8EDFB
:10055300CBECCAC3E833C8E933C9EA33CAEB33CBBC
:10056300C3EA9EF524EB9FF523B35004AB23AA24DF
:10057300EC33CCED33CDD5F0DAAE21AF2222D083EC
:10058300D082ECC0E0EDC0E0E493A3FCE493A3FDD0
:10059300ED4C600D12069CEC24FFFCED34FFFD8056
:1005A300EFE493A3FCE493A3FDED4C600D12076FFE
:1005B300EC24FFFCED34FFFD80EFD0E0FDD0E0FC48
:1005C300E493A3C0E0E493C0E022851983851882F5
:1005D300E0A3FEE0A3F5207808E0A3F608DFFAE045
:1005E300A3FFE0A3C0E0E0A3C0E0E0A3C0E0E0A37A
:1005F300C0E0E0A3C0E010AF0885821885831980AE
:1006030008858218858319D2AFD083D0820208B6B9
:10061300D083D082E9C0E0E493A3C386F0C5F0950C
:10062300F0F908E493A386F0C5F095F0700BE4931A
:10063300A3C3994005E9048002A3E475F002A4254D
:1006430082F582E5F03583F583D0E0F9E493A3C026
:10065300E0E493C0E022C0E074F2120477A2AFE4B6
:1006630033FED2AFC2C090143FE0700BE5D1A2E4D9
:10067300501D1224228018E5D1A2E3500675D1F74C
:100683001223F8E5D1A2E4500675D1EF1223FEEE52
:10069300A2E092AF7F010204D6C0E0C3E4939608C0
:1006A3007401939618400FE49366700808740193DD
:1006B300661870007019A3A3C3E49396087401939A
:1006C3009618A3A3400DD0E0D0E0D0E00205BDA36F
:1006D300A3A3A3A3A3D0E022D083D082C5F0E49345
:1006E300A3C5F0C395F0F5F0E493A3C395F04005DB
:1006F300E5F0048001E475F002A42582F582E5F0BB
:100703003583F583E493A3C0E0E493C0E02274044B
:10071300800474028000CCC0E0EDC0E0E518C39C07
:10072300CCAD1950011D10AF068C188D1980068CA5
:10073300188D19D2AF120832D0E0FDD0E0FC22743C
:10074300028000CCC0E0EDC0E0E518C39CCCAD193D
:1007530050011D10AF068C188D1980068C188D1949
:10076300D2AF120810D0E0FDD0E0FC22C0E0C0F010
:1007730088F0E4936670080874019366187000A803
:10078300F0A3A3700BD0F0D0E0D0E0D0E00205BD21
:10079300A3A3D0F0D0E022D083D082CCC0E0E493F6
:1007A300A360061208721470FAE493A36006120998
:1007B300821470FAD0E0FCE493A3C0E0E493C0E0B9
:1007C30022C0E074F2120477758900C2C590143F09
:1007D300E0700E7A007B10900722E0F9121CAE80C5
:1007E30003122A107F010204D6C0E0C0D0E8C0E0A3
:1007F300E9C0E0E5A8D2AFC2C7751A00A2E7A2E735
:1008030092AFD0E0F9D0E0F8D0D0D0E032CAC0E067
:10081300E493A3C582CCC582C583CDC583F0A3C5AC
:1008230082CCC582C583CDC583DAE5D0E0CA22CAAE
:10083300C0E0E0A3C582CCC582C583CDC583F0A348
:10084300C582CCC582C583CDC583DAE6D0E0CA2292
:10085300C008C3E096F50808A3E096420808A3E0A1
:1008630096420808A3E09645087001D3D00822C039
:10087300E0E493A3D39C5010E493A3C39C400AD019
:10088300E0D0E0D0E00207B7A3A3A3D0E022700931
:10089300080808226016181818C6C333C608C633DA
:1008A300C608C633C608C633C6D5E0EA22C09FF5DC
:1008B3009FE473D09F22D083D082C09FE493C0E093
:1008C300740193C0E0740293F59F222518F58210FA
:1008D300AF08F518400C15198008F51840021519D2
:1008E300D2AF851983227404800A740380067402CC
:1008F30080027401C0E0F4041208CED0E0120B4F62
:100903002200C0D0251810AF08F518500C05198027
:1009130008F51850020519D2AFD0D022BB0102E767
:1009230022C082C08389828A83BB0003E08002E401
:1009330093D083D082226016080808C6C313C61852
:10094300C613C618C613C618C613C6D5E0EA22C313
:10095300E0C696F608A3E0C696F608A3E0C696F6A8
:1009630008A3E0C696F6222518F8E43519F92225DE
:1009730018FAE43519FB222518FCE43519FD22C0C9
:10098300E0E493A36C7009D0E0D0E0D0E00207B7B5
:10099300A3A3D0E022251810AF08F518400C1519B1
:1009A3008008F51840021519D2AF22E766701008C7
:1009B30009E766700A0809E76670040809E7662212
:1009C300C3E09608A3E09608A3E09608A3E096A2E6
:1009D300D265D03322E066701008A3E066700A087F
:1009E300A3E066700408A3E06622C3E096F008A3C0
:1009F300E096F008A3E096F008A3E096F022C3E6A1
:100A030097F60809E697F60809E697F60809E697C0
:100A1300F622C3E49396087401939608740293969E
:100A2300087403939622700422600D18C6C333C65C
:100A330008C633C6D5E0F41822E647F60809E647A8
:100A4300F60809E647F60809E647F622E026F00825
:100A5300A3E036F008A3E036F008A3E036F022E680
:100A630027F60809E637F60809E637F60809E637F0
:100A7300F622E657F60809E657F60809E657F60898
:100A830009E657F622E056F608A3E056F608A3E077
:100A930056F608A3E056F622E026F608A3E036F65B
:100AA30008A3E036F608A3E036F622E056F008A3E2
:100AB300E056F008A3E056F008A3E056F022E4C3A2
:100AC30096F608E496F608E496F608E496F622C34A
:100AD300E7960809E7960809E7960809E79622C604
:100AE300F4C608C6F4C608C6F4C608C6F4C622602F
:100AF3000D08C6A2E713C618C613C6D5E0F322C372
:100B0300E09608A3E09608A3E09608A3E096227572
:100B1300D00075813F7518D17519040002040FE6E2
:100B2300F008A3E6F008A3E6F008A3E6F022600CC1
:100B330008C6C313C618C613C6D5E0F422E0F608E8
:100B4300A3E0F608A3E0F608A3E0F622CAC0E0E6B5
:100B5300F0A308DAFAD0E0FA22E8F0A3E9F0A3EA76
:100B6300F0A3EBF022E0F8A3E0F9A3E0FAA3E0FBA3
:100B730022EAF0A3EBF0A3ECF0A3EDF022E0FAA35A
:100B8300E0FBA3E0FCA3E0FD22E5C754F84401F534
:100B9300C77901222518F582E43519F58322C2AFFE
:100BA30075D69F020000221208B94CAA021208B996
:100BB300D4AA021208B9BCAB021208B950AC021293
:100BC30008B964AC021208B978AC021208B98CAC4B
:100BD300021208B9A0AC021208B9DCAC021208B9BF
:100BE3000CAD021208B9A5AE021208B961AF021228
:100BF30008B919B0021208B96EB0021208B9D1B01F
:100C0300021208B90FB1021208B939B1021208B9B8
:100C1300C5B1021208B91EB2021208B97FB202129C
:100C230008B9BEB4021208B992B6021208B971B774
:100C3300021208B9AAB8021208B95DBB021208B9B8
:100C430070BE021208B97FBE021208B90BBF0212AE
:100C530008B9C1BF021208B908C0021208B951C0CD
:100C6300021208B98DC0021208B903C1021208B9F1
:100C73006FC1021208B98BC1021208B9BCC10212BA
:100C830008B9FBC1021208B9FCC2021208B9ABC30E
:100C9300021208B93CC6021208B995C7021208B974
:100CA30028C8021208B9B2C8021208B9CDC8021284
:100CB30008B913C9021208B9C4C9021208B975CA1E
:100CC300021208B9F2CB021208B97DCC021208B99C
:100CD300C0CC021208B95CCE021208B99BCE021234
:100CE30008B911CF021208B966D0021208B909D1A6
:100CF300021208B93DD1021208B955D1021208B93E
:100D0300F8D1021208B982D4021208B923D602120A
:100D130008B941D6021208B95FD6021208B92FD713
:100D2300021208B984DA021208B90080031208B962
:100D33005A80031208B9C480031208B94D81031203
:100D430008B90982031208B95182031208B97682DD
:100D5300031208B9B182031208B90783031208B951
:100D63006F83031208B9F383031208B90C840312C7
:100D730008B93184031208B95084031208B98E8468
:100D8300031208B9DD84031208B90685031208B9F2
:100D93005585031208B90186031208B9C9860312DF
:100DA30008B92E87031208B9FB87031208B94188D3
:100DB300031208B95D88031208B98F88031208B9B2
:100DC300378A031208B90E8B031208B93A8B031240
:100DD30008B9708B031208B9918B031208B9A08B61
:100DE300031208B9AB8B031208B95F8C031208B95D
:100DF300D28C031208B9448D031208B94C8D031227
:100E030008B9C78D031208B9208E031208B9638E7F
:100E1300031208B9F590031208B93B92031208B9FB
:100E2300CB94031208B9B395031208B9E6950312DC
:100E330008B9A896031208B95797031208B99F97E0
:100E4300031208B90198031208B92698031208B9C6
:100E53003798031208B9AF98031208B937990312E8
:100E630008B99B99031208B9809A031208B9A59A85
:100E7300031208B9C69B031208B9E49B031208B90D
:100E8300F79B031208B96A9C031208B9799C0312F1
:100E930008B9019D031208B9499D031208B9569D6B
:100EA300031208B95F9D031208B95F9F031208B9C3
:100EB300B3A0031208B9C3A0031208B9DFA1031238
:100EC30008B94DA2031208B987A2031208B9BDA33A
:100ED300031208B91EA4031208B960A4031208B9C7
:100EE3009CA4031208B970A6031208B9D5A803126B
:100EF30008B9E9A8031208B9F3A8031208B9FDA8B1
:100F0300031208B907A9031208B911A9031208B9F2
:100F13002AA9031208B934A9031208B93EA9031276
:100F230008B948A9031208B977A9031208B99FA9F8
:100F3300031208B9AAA9031208B9F4A9031208B93C
:100F4300FEA9031208B909AA031208B92DAA0312AC
:100F530008B951AA031208B9B2AA031208B9FDAA23
:100F6300031208B919AB031208B983AB031208B90A
:100F7300CFAB031208B917AC031208B992AC031232
:100F830008B92CAD031208B9F0AE031208B95EAF6D
:100F9300031208B990B0031208B9B6B0031208B926
:100FA30026B2031208B9DAB5031208B9DAB7031285
:100FB30008B9B2B9031208B94BBA031208B95DBC38
:100FC300031208B91FBD031208B96BBD031208B998
:100FD300D1BD031208B9E3BD031208B933C003122C
:100FE30008B922C1031208B961C2031208B9B3C216
:100FF300031208B958C3031208B913C5031208B979
:1010030044C6031208B962C6031208B9B7C603126D
:1010130008B9B5C7031208B9DDC7031208B940C838
:10102300031208B941C9031208B9B4C9031208B9B4
:10103300E2CA031208B94DCB031208B93DCC03121F
:1010430008B9A3CE031208B9D1CE031208B9CCCF85
:10105300031208B96AD1031208B9BAD1031208B945
:1010630072D2031208B927D3031208B98BD3031220
:1010730008B944D4031208B9E4D4031208B948D513
:10108300031208B992D5031208B9CFD5031208B9D0
:1010930037D7031208B96781011208B9A981011270
:1010A30008B9A484011208B9F784011208B93D856F
:1010B300011208B97E86011208B9E386011208B944
:1010C3002387011208B96688011208B9A88B011297
:1010D30008B9D18C011208B91298011208B9B29853
:1010E300011208B9A59B011208B9DC9C011208B9C9
:1010F300529D011208B97C9E011208B9CC9F0112BE
:1011030008B9B3A0011208B91CA3011208B92AA592
:10111300011208B9BBA5011208B98FA6011208B9BB
:101123001BA7011208B925A7011208B94DA701127F
:1011330008B9FAA7011208B9E5A8011208B9B8A9B4
:10114300011208B945AA011208B95BAA011208B92C
:10115300BFAA011208B9E8AA011208B915AB011216
:1011630008B95AAD011208B935AE011208B979AE02
:10117300011208B9EAAE011208B9A3AF011208B906
:10118300D5AF011208B91CB0011208B94FB0011252
:1011930008B9B4B0011208B903B1011208B908B112
:1011A300011208B95CB1011208B9A6B1011208B95C
:1011B30085B2011208B9E4B2011208B949B30112A8
:1011C30008B9A7B3011208B9F1B6011208B9C5B736
:1011D300011208B952B9011208B92CBC011208B99D
:1011E300DFBC011208B906BF011208B9ABBF011277
:1011F30008B9E9BF011208B9B9C1011208B9CCC1D4
:10120300011208B9D5C1011208B9DEC1011208B92A
:10121300F3C1011208B912C2011208B947C401127D
:1012230008B99AC4011208B9A4C4011208B9AEC41A
:10123300011208B909C5011208B965C5011208B937
:101243007DC6011208B9DEC6011208B92DC8011204
:1012530008B976C8011208B94EC9011208B979CA8A
:10126300011208B92FCB011208B931CC011208B908
:1012730033CD011208B918CE011208B92FCE0112CD
:1012830008B96CCE011208B976CE011208B980CE26
:10129300011208B98BCE011208B9A9CE011208B9FF
:1012A300EBCE011208B949CF011208B96ECF011272
:1012B30008B988CF011208B915D0011208B94ED068
:1012C300011208B99ED1011208B9F5D1011208B96A
:1012D3000FD3011208B945D3011208B9E1D30112A2
:1012E30008B95DD4011208B9CDD5011208B9E8D601
:1012F300011208B9AED7011208B958D8011208B9BA
:10130300DDD8011208B945D9011208B9FAD9011279
:1013130008B94CDA011208B9C1DA011208B98ADB3B
:10132300011208B9ADDB011208B971DC011208B969
:1013330095DC011208B9B7DC011208B918DD0112F6
:1013430008B963DF011208B93EE0011208B9E8E009
:10135300011208B929E3011208B977E3011208B9A8
:10136300BAE3011208B912E4011208B970E40112D8
:1013730008B99AE4011208B9BEE4011208B9EFE40E
:10138300011208B919E5011208B960E5011208B99B
:10139300BEE5011208B91AE6011208B91BE70112EA
:1013A30008B985E8011208B9C3E8011208B9ECE8E5
:1013B300011208B97DE9011208B9C7E9011208B998
:1013C300EBE9011208B941EA011208B95CEA01121A
:1013D30008B917EB011208B941EB011208B984EB04
:1013E300011208B9DAEB011208B9DFEE011208B9EC
:1013F30012EF011208B9CFEF011208B9AAF00112D6
:1014030008B93AF1011208B97BF1011208B902CA0D
:10141300051208B93ACA051208B95BCA051208B918
:101423009DCA051208B901CB051208B90BCB0512E9
:1014330008B91BCB051208B952CB051208B9FBCE6C
:10144300051208B9C3D0051208B9B7D2051208B9F5
:1014530055D3051208B9DCD3051208B900320012BE
:1014630008B9A932001208B98833001208B9A334A5
:10147300001208B9C334001208B9E535001208B9DF
:101483008237001208B9EF37001208B9C5380012C5
:1014930008B9CB39001208B9303A001208B96C3ACE
:1014A300001208B9C53A001208B9FE3A001208B989
:1014B300473B001208B9D93B001208B9763C001229
:1014C30008B94B3D001208B9183E001208B9A53EF1
:1014D300001208B9CB3E001208B9F83E001208B951
:1014E300293F001208B9FE3F001208B90E4000124E
:1014F30008B96140001208B96E40001208B97B4078
:10150300001208B98440001208B9E840001208B973
:101513004641001208B99141001208B9AC410012CA
:1015230008B9D341001208B9F041001208B9FC41CF
:10153300001208B9A043001208B9B943001208B950
:101543003544001208B94844001208B9584400123F
:1015530008B9FE44001208B96E46001208B9814763
:10156300001208B92148001208B92B48001208B923
:101573009948001208B9AA48001208B9E9480012AC
:1015830008B91749001208B9E449001208B93B4ADF
:10159300001208B9804A001208B9D64A001208B9E5
:1015A300F44A001208B9424B001208B9104C001259
:1015B30008B95E4C001208B9A04C001208B9234DBB
:1015C300001208B94D4D001208B9834D001208B935
:1015D300924D001208B9F04D001208B9684E00127E
:1015E30008B9A94E001208B9F84E001208B9234FE2
:1015F300001208B93D4F001208B9574F001208B93D
:101603002C50001208B93650001208B9715000125C
:1016130008B98150001208B98A50001208B9DB508A
:10162300001208B9EF50001208B90D52001208B9A0
:101633002052001208B93752001208B94C52001256
:1016430008B9E652001208B96553001208B90854E4
:10165300001208B91354001208B96055001208B9F2
:101663007C55001208B9D455001208B9425600122D
:1016730008B98E56001208B9A856001208B90857BF
:10168300001208B9A657001208B9F157001208B999
:10169300545A001208B9EC5A001208B9635B0012DD
:1016A30008B9A95D001208B9C15D001208B9C45D8B
:1016B300001208B9D05D001208B9E45D001208B940
:1016C300EC5D001208B9235E001208B9175F00121F
:1016D30008B9A15F001208B92360001208B9986025
:1016E300001208B97061001208B99261001208B9BA
:1016F3002962001208B93562001208B99262001219
:1017030008B99562001208B9C262001208B9D7621B
:10171300001208B94663001208B99264001208B9AE
:10172300A565001208B93066001208B943670012B4
:1017330008B90D68001208B93E68001208B9646858
:10174300001208B96D68001208B99C68001208B944
:101753004C69001208B9FC69001208B96F6A0012DB
:1017630008B9216B001208B9946B001208B9D36B46
:10177300001208B91C6C001208B9516C001208B9A8
:101783009FA2051208B920A3051208B967A3051281
:1017930008B9DDA3051208B955A4051208B9E6A4D2
:1017A300051208B92AA7051208B970A9051208B9C4
:1017B30045AD051208B9C2AD051208B9FDAD051254
:1017C30008B91BAE051208B97BAE051208B9A3AE62
:1017D300051208B9D3AE051208B904AF051208B94A
:1017E30031AF051208B98AAF051208B9D5AF051292
:1017F30008B90CB0051208B988B0051208B9AEB023
:10180300051208B9E5B0051208B93EB2051208B9C8
:101813005AB2051208B99FB2051208B92FB30512BF
:1018230008B987B3051208B95CB4051208B93AB50B
:10183300051208B984B5051208B9E5B5051208B94A
:1018430069B6051208B992B6051208B9D3B60512DE
:1018530008B981B8051208B951B9051208B918BAFF
:10186300051208B9EBBA051208B925BB051208B968
:101873007DBB051208B99FBB051208B933BC05121D
:1018830008B9E6BC051208B9E2A4061208B947A5CF
:10189300061208B9EEA5061208B926A6061208B95B
:1018A3002C94051208B9D794051208B97496051239
:1018B30008B9F096051208B92897051208B9139AC2
:1018C300051208B9A59B051208B9E09B051208B9D2
:1018D300739C051208B9AB9F051208B94CA10512F8
:1018E30008B964CB061208B98CCB061208B978CCB8
:1018F300061208B912D2061208B914E6051208B97D
:101903009FE6051208B959E7051208B90FE8051251
:1019130008B95CE8051208B9A2E8051208B9AAE9F2
:10192300051208B962EA051208B984EA051208B972
:10193300CDEA051208B91CEB051208B963EB0512D1
:1019430008B9D3EB051208B912EC051208B9F7EC84
:10195300051208B9A985061208B92C86061208B91A
:101963004386061208B9B686061208B91C87061202
:1019730008B94587061208B9CA87061208B96C88E0
:10198300061208B9CF88061208B93489061208B9B5
:101993005489061208B98489061208B9A089061267
:1019A30008B9CF89061208B9FF89061208B9358A22
:1019B300061208B9958A061208B93ABD051208B984
:1019C3000ABE051208B92FBE051208B94FBE05128B
:1019D30008B963BE051208B9CBBE051208B9EFBE3C
:1019E300051208B90EC0051208B938C1051208B9A5
:1019F30015C2051208B979C2051208B9A5C20512A4
:101A030008B929C3051208B97AC3051208B99BC3DB
:101A1300051208B913C4051208B9B7C5051208B9E8
:101A23001AC6051208B9AAC7051208B977C805125C
:101A330008B9B2C8051208B9D7C8051208B9F7C85A
:101A4300051208B91DC9051208B931C9051208B92B
:101A53009AC9051208B9EEC9051208B991FD041215
:101A630008B99CFD041208B9BDFD041208B9B96C8C
:101A7300001208B9A270001208B9CF71001208B998
:101A8300BC73001208B94674001208B9FA74001244
:101A930008B92375001208B96D75001208B9557697
:101AA300001208B9C876001208B9CB76001208B93B
:101AB300CE76001208B9D176001208B9F176001279
:101AC30008B9F476001208B90D77001208B96977DE
:101AD300001208B96178001208B99979001208B99F
:101AE300E7A2021208B99A7B001208B9937C00128C
:101AF30008B9657D001208B9137E001208B9D67EB5
:101B0300001208B9A2DA021208B9DADA021208B925
:101B1300BBDF021208B9ACE0021208B925E10212D8
:101B230008B956E1021208B984E1021208B9D8E1F2
:101B3300021208B906E2021208B927E3021208B931
:101B430055E3021208B999A9021208B9B9E30212BE
:101B530008B966E4021208B98CE4021208B9EBE48E
:101B6300021208B961E6021208B9FBE6021208B9CB
:101B7300ECE7021208B938E8021208B94EE802127B
:101B830008B969E9021208B95BEA021208B990EAD6
:101B9300021208B9DFEA021208B94BEB021208B9C4
:101BA300B3EB021208B900EC021208B970EC02128E
:101BB30008B981ED021208B975EE021208B925EFD2
:101BC300021208B95AEF021208B9AFEF021208B9AC
:101BD3003DF0021208B96BF0021208B9F0F10212DB
:101BE30008B975F2021208B9B5F2021208B9F4F293
:101BF300021208B90DF3021208B9BCF3021208B9B4
:101C030086F4021208B92DF5021208B9C1F50212C1
:101C130008B967F6021208B9D1F6021208B95CF7DF
:101C2300021208B9EFF7021208B90DF8021208B947
:101C3300E0F8021208B99EF9021208B954FA021226
:101C430008B9F2FA021208B9F1F4051208B932F52B
:101C5300051208B99BF5051208B9BCF5051208B9B8
:101C6300D5F5051208B98FF6051208B998F60512CD
:101C730008B9E9F6051208B912F7051208B929F7E8
:101C8300051208B98DF7051208B91FF8051208B92E
:101C930050F8051208B9ACF8051208B912F9051283
:101CA30008B946F9051208B9B9F9051208B9FBF9DB
:101CB300051208B93BFA051208B973FA051208B9F7
:101CC30085FA051208B997FA051208B9C8FA051278
:101CD30008B908FB051208B931FB051208B9089BBE
:101CE300061208B94B9C061208B9719C061208B972
:101CF300829C061208B99A9E061208B9B99E06126A
:101D030008B9BEC2061208B9F4C2061208B93FC325
:101D1300061208B98BC4061208B90080051208B967
:101D23003E81051208B97A81051208B93F8305126D
:101D330008B96983051208B9EF85051208B92F861A
:101D4300051208B9C487051208B95988051208B9DC
:101D5300B788051208B94889051208B980890512A0
:101D630008B9C289051208B93C8B051208B9C58C9C
:101D7300051208B9FB8E051208B9298F051208B997
:101D8300558F051208B95E8F051208B9B48F051275
:101D930008B94490051208B94B93051208B9CF93BB
:101DA300051208B9DCD5061208B9F2D5061208B92E
:101DB300FCD5061208B94CD6061208B95BFB05120E
:101DC30008B974FB051208B919FC051208B959FCC6
:101DD300051208B972FC051208B9A6FC051208B968
:101DE300F3FC051208B927FD051208B969FD0512B0
:101DF30008B93FFF051208B9AAFF051208B9E1CDDA
:101E0300061208B93BCE061208B994CE061208B9D9
:101E13002DD5061208B980D5061208B9C2D5061207
:101E230008B9D2D5061208B99BA8041208B9F3A8B9
:101E3300041208B993A9041208B9ABAA041208B989
:101E430097AB041208B964AC041208B979AC041254
:101E530008B9C3AC041208B91AAD041208B986ADA7
:101E6300041208B999AD041208B9F1AD041208B906
:101E730060AE041208B9F7B0041208B9F3B1041242
:101E830008B94EB2041208B9A2B2041208B9BEB41A
:101E9300041208B90EB5041208B98FB5041208B9B3
:101EA30061B6041208B99AB6041208B9B9B6041295
:101EB30008B904B7041208B91AB7041208B927B746
:101EC300041208B960B7041208B972B7041208B94A
:101ED30061B8041208B96CB8041208B9F1B8041255
:101EE30008B949B9041208B995B9041208B9CCBAAA
:101EF300041208B9F4BA041208B970BD041208B97F
:101F030098BD041208B9AABE041208B9D9BE0412B6
:101F130008B951BF041208B913C0041208B947C065
:101F2300041208B9B7C0041208B994C1041208B95D
:101F3300CDC1041208B9D7C1041208B9DAC1041219
:101F430008B9E4C1041208B900C2041208B97CC27A
:101F5300041208B9B5C2041208B9D1C2041208B9EF
:101F6300FDC2041208B938C3041208B953C30412DA
:101F730008B95DC3041208B98CC3041208B9A2C31B
:101F8300041208B9BEC3041208B9EDC3041208B998
:101F93000DC4041208B956C4041208B99FC404122C
:101FA30008B9A9C5041208B91FD1061208B930D15E
:101FB300061208B9B9D1061208B9C9ED051208B954
:101FC30018EE051208B9D6EF051208B9A9F10512E2
:101FD30008B9E7F1051208B9BDF2051208B9C2F351
:101FE300051208B9E4F3051208B940F4051208B95B
:101FF300C1F4051208B90080041208B92280041242
:1020030008B97481041208B9BD81041208B9368273
:10201300041208B9B182041208B91A83041208B968
:102023006183041208B9CF83041208B974840412BB
:1020330008B9FA84041208B93685041208B98A89E2
:10204300041208B9988B041208B9CB8B041208B98F
:102053000A8C041208B9178D041208B900900412EF
:1020630008B9AA90041208B95592041208B98893C2
:10207300041208B99E94041208B91395041208B9FE
:10208300DF95041208B97696041208B986960412ED
:1020930008B93D97041208B97398041208B9B79A9E
:1020A300041208B95A9D041208B9389E041208B9DB
:1020B300759F041208B9BAA2041208B9CAA204127D
:1020C30008B901A4041208B9B4A4041208B9E5A517
:1020D300041208B953A6041208B98AA7041208B94E
:1020E300DFA7041208B984E3041208B92BE404122D
:1020F30008B99DE4041208B9ADE4041208B92FE548
:10210300041208B986E5041208B97BE6041208B97B
:10211300A2E6041208B947E7041208B996E70412C5
:1021230008B9F4E7041208B94FE8041208B92AEB16
:10213300041208B9E3EB041208B948EC041208B915
:10214300DBED041208B97BEE041208B914EF041294
:1021530008B971EF041208B9E7EF041208B9E3F004
:10216300041208B9D6F1041208B92FF2041208B9FF
:1021730045F2041208B966F2041208B9A5F2041272
:1021830008B935F3041208B978F4041208B935F61E
:10219300041208B97FF7041208B9B9F8041208B990
:1021A300C4F9041208B964FA041208B9D3FA041280
:1021B30008B9F0FB041208B9AAD7031208B913D857
:1021C300031208B95BD8031208B99FD8031208B9E0
:1021D30012D9031208B96CD9031208B9A7D903128B
:1021E30008B941DA031208B99BDA031208B907DC0C
:1021F300031208B980DC031208B9AADC031208B978
:10220300BEDD031208B9D2DE031208B9FADE0312E7
:1022130008B9F8DF031208B909E0031208B91FE08F
:10222300031208B920E1031208B943E1031208B904
:1022330010E2031208B938E2031208B94FE203129D
:1022430008B975E2031208B9B0E2031208B9D0E283
:10225300031208B9F7E2031208B90FE3031208B92E
:10226300F2E3031208B955E4031208B9BAE50312FD
:1022730008B938E6031208B95CE6031208B973E635
:10228300031208B947E7031208B9E0E7031208B9D4
:1022930006E8031208B95BE9031208B979E90312E6
:1022A30008B9F4E9031208B92AEA031208B967EA7C
:1022B300031208B9FDEA031208B969EB031208B95E
:1022C3004DEC031208B92BEE031208B900EF031209
:1022D30008B94CEF031208B957F0031208B975F1A6
:1022E300031208B993F2031208B9A1F2031208B951
:1022F3009BF3031208B93DF4031208B986F40312E1
:1023030008B99BF4031208B9ADF5031208B94EF6E8
:10231300031208B9ACF6031208B9D190061208B932
:102323000E91061208B9A791061208B9B2920612C5
:1023330008B9FA94061208B97695061208B909B4D1
:10234300061208B937B5061208B9FFB5061208B95F
:1023530054B6061208B9D7B6061208B94EAD06121E
:1023630008B9BCAE061208B9E8D2061208B9F9D208
:10237300061208B999D3061208B9EE7F001208B9FC
:10238300D9FF021208B9B3D3061208B9C3D3061290
:1023930008B9D8D3061208B969D4061208B91BD0F4
:1023A300061208B9A0D0061208B906D1061208B958
:1023B300F7FF021208B9E7FF011208B9F7FF01128C
:1023C30008B9FAFF011208B9FDFF011208B9F87F35
:1023D300001208B9EEC4061208B910C5061208B9EE
:1023E3007EC6061208B902C7061208B9CAFF03124D
:1023F30008B9D3FF031208B9DCFF031208B9EAFFD7
:10240300031208B90080061208B96C80061208B9D5
:102413003481061208B92D82061208B91A840612ED
:1024230008B97484061208B9C784061208B9D88497
:10243300061208B9EA84061208B95685061208B9C5
:102443006A85061208B97585061208B983850612CE
:1024530008B99585061208B9498B061208B9758B18
:10246300061208B91C8E061208B9718E061208B935
:10247300AD8E061208B9C18E061208B9DA8E06129D
:1024830008B9CD8F061208B9A990061208B9BD90F4
:10249300061208B994C8061208B9B8C8061208B9D2
:1024A300D1C8061208B910C9061208B943C90612E1
:1024B30008B973C9061208B97DC9061208B9E5C976
:1024C300061208B9E8C9061208B9F2C9061208B912
:1024D300FFC9061208B918C0061208B940C006128F
:1024E30008B981C0061208B99FC0061208B9BAC05C
:1024F300061208B922C1061208B92EC1061208B97C
:102503008DC1061208B9B1C1061208B972C206120A
:1025130008B97FC2061208B990C2061208B97AD662
:10252300061208B992D6061208B9B8D6061208B927
:10253300F795061208B94996061208B9929706123A
:1025430008B99897061208B9AF97061208B9D09739
:10255300061208B9E697061208B9FA97061208B9DF
:102563007998061208B9DE98061208B96699061218
:1025730008B9DF99061208B9B89A061208B9C89AB9
:10258300061208B9D79A061208B9557F001208B97E
:10259300797F001208B9A17F001208B9C97F001220
:1025A30008B959BD061208B9C5BD061208B9E4BD7C
:1025B300061208B94ABE061208B990BA061208B93B
:1025C300A9BA061208B9C0BA061208B9C9BA0612DE
:1025D30008B9E7BA061208B9F1BA061208B9FBBA84
:1025E300061208B90EBB061208B99BBB061208B93E
:1025F3000ABC061208B938BC061208B989BC06120F
:1026030008B9D5BC061208B9F0BC061208B9FABC61
:10261300061208B90BBD061208B94EBD061208B959
:1026230001D7061208B94CD7061208B988D4051287
:1026330008B9B4D4051208B9D2D4051208B9E5D43F
:10264300051208B900D5051208B95FD5051208B9F6
:102653008DD5051208B999D9051208B9DBDA051227
:1026630008B90DDB051208B978DB051208B9FCDCE3
:10267300051208B924DD051208B939DD051208B9B8
:1026830049DD051208B989DD051208B9CBDD05124C
:1026930008B9DBDD051208B9A9CC061208B9B9CC13
:1026A300061208B9D7CC061208B9F2CC061208B93B
:1026B30019CD061208B93ACD061208B954CD06123F
:1026C30008B98CCD061208B9AFCD061208B979D472
:1026D300061208B9BFD4061208B971B0061208B9B8
:1026E30081B0061208B99FB1061208B9D1B106121A
:1026F30008B9F3B1061208B91BB2061208B934B20D
:10270300061208B970B2061208B9D9B2061208B98E
:1027130015B3061208B95CB3061208B989B30612D9
:1027230008B9B5B3061208B905C7061208B93CC7FC
:10273300061208B964C8061208B967C8061208B9B0
:1027430008CF061208B97ACF061208B9B8CF061215
:1027530008B9F9CF061208B90BDE051208B911DE64
:10276300051208B958DE051208B964E0051208B964
:1027730094E0051208B9FEE0051208B9B9E10512A3
:1027830008B900E2051208B933E2051208B9BDE23F
:10279300051208B9D4E2051208B9E1E2051208B935
:1027A300EBE2051208B98BE4051208B97DE50512C1
:1027B30008B9DBE5051208B94DF7031208B963F749
:1027C300031208B915F8031208B93FF9031208B93F
:1027D30034FA031208B9CBFA031208B906FB031241
:1027E30008B978FB031208B9D6FB031208B9E6FB54
:1027F300031208B90DFC031208B95FFC031208B9F0
:10280300CEFD031208B9D3FD031208B9F5FD031277
:1028130008B93CF2011208B9EEF2011208B969F3E2
:10282300011208B9F4F3011208B93AF4011208B914
:102833004CF6011208B9E4F6011208B954FC01126E
:1028430008B951FD011208B9DEFD011208B903FEF2
:10285300011208B9D1FE011208B944FF011208B9E7
:1028630063FF011208B987FF011208B9F4C6041205
:1028730008B969C7041208B907C8041208B922C9FC
:10288300041208B9D8C9041208B93FCA041208B916
:1028930083CA041208B92ACB041208B9F9CB04126B
:1028A30008B93BCC041208B98ACC041208B942CD4A
:1028B300041208B920D0041208B912D1041208B9BD
:1028C30055D4041208B92CD5041208B9C0D6041281
:1028D30008B9EFD7041208B9CAD8041208B9D5DA6F
:1028E300041208B965DD041208B988DD041208B9B9
:1028F300A3DD041208B9FBDE041208B99EDF04123B
:1029030008B9DDDF041208B912E0041208B9D3E0F4
:10291300041208B9A5E2041208B9B7FB021208B9F8
:10292300DCFB021208B920FC021208B946FC0212B1
:1029330008B968FC021208B980FC021208B998FCB5
:10294300021208B9B0FC021208B956FD021208B906
:1029530098FD021208B9A2FD021208B9B7FD0212CE
:1029630008B9BEFE021208B9D9FE021208B9E2FE86
:10297300021208B9EBFE021208B9F4FE021208B9FA
:10298300FEFE021208B97BFF021208B90DA006125F
:1029930008B952A4061208B96EA4061208B973A4A2
:1029A300061208B9E0A8061208B9F6A8061208B973
:1029B300BDAA061208B908AB061208B972AB061213
:1029C30008B979AC061208B9A8AC061208B9BAACB2
:1029D300061208B909CA061208B969B7061208B976
:1029E300C5B7061208B905B8061208B907B9061221
:1029F30008B91FB9061208B934B9061208B960B983
:102A0300061208B997B9061208B9A7B9061208B988
:102A1300BDB9061208B9E2B9061208B96DBA0612B1
:102A230008B9BBFF011208B9B5A2021208B926A260
:102A3300021208B9D8A0021208B95EA0021208B99E
:102A43009B9F021208B9919E021208B9489E021276
:102A530008B9229E021208B95E9D021208B9A89B0A
:102A6300021208B9489B021208B9199B021208B94D
:102A7300169B021208B9DC99021208B9C89802120F
:102A830008B98897021208B9BA96021208B93296A1
:102A9300021208B95295021208B9B994021208B980
:102AA3001394021208B9D593021208B93B93021288
:102AB30008B9FA92021208B948A7021208B91DA769
:102AC300021208B9BEA6021208B92FA5021208B94C
:102AD300BDA4021208B989A4021208B95EA40212A5
:102AE30008B99D92021208B96A92021208B9FE91BE
:102AF300021208B9CB91021208B93AA4021208B91A
:102B03007091021208B93F91021208B9088E02129D
:102B130008B91A8D021208B95DA3021208B9D48B41
:102B2300021208B983E3021208B9808B021208B9B2
:102B3300748B021208B9DB8A021208B9A98902123E
:102B430008B9FA86021208B99D84021208B95184A1
:102B5300021208B93683021208B9CB82021208B9ED
:102B6300F381021208B9AF81021208B96B80021215
:102B730008B93280021208B90080021208B9F0FFC6
:102B8300021208B9ECFF021208B9EEFF021208B9EB
:102B930027A3021208B9F1790000000080FB8F001F
:102BA3000100190987000100180924000200A1157A
:102BB30025000200A31526000200A5152700020028
:102BC300A71528000100A91529000100AA158400F2
:102BD3000400AB1586000100AF152A000100B015F3
:102BE3002B000100B1152C000100B5152D000800C4
:102BF30000092E000100B6152F000100B7153000A3
:102C03000100B81531000100B915320001000809AF
:102C130033000100090934000100BA153600010030
:102C23000A0938000100BB1539000100B4158300FF
:102C33000200CD1563000100150964000100B215FF
:102C430065000100B3156D0001001609710008004D
:102C5300F80866000100CC1543000100BD154400CF
:102C63000200BE1545000100C01546000200C11553
:102C7300470008000D0948000100C3154B0001007F
:102C8300C41504000100CF15A1000100D2153700BF
:102C93000100D11588000100D0153C0001000B098B
:102CA3003D000100BC1549000200C5156700010085
:102CB30017094D000200C7154E000100C9154F004A
:102CC3000200CA153E0001000C09000000000000CC
:102CD3000001363601010001020100010301000178
:102CE3000401060605020000070100340801000F75
:102CF300090401010D0100FF0E0800001702000086
:102D0300190100FF1A0100011B0100FE1C0100084C
:102D13001D0200001F01000120010001210200002B
:102D23002301000F240200002601000127010008EF
:102D3300280200FF2A0100072B0102402C0100009A
:102D43002D0100012E0100012F0100FF30010B1C9A
:102D5300310800003A0100083B01000F3C0100016B
:102D63003D0100FF3E040000420400004604000051
:102D73004A0400004E040000520400005604000000
:102D83005A0400005E20FFFF360001000600000029
:102D93000F0000000000000000000000000003FF1F
:102DA300FF00000403FFFF0000FFFF0FF401000515
:102DB300C4040320000100000B0000000000000019
:102DC3000003010F000000000000000000000000ED
:102DD30000000000000000000000000000000000F0
:102DE30000000000000000000000000000000000E0
:102DF30000000000000000000000000000000000D0
:102E0300000000000000010371030103010301033B
:102E13000103010322030203010310030003000360
:102E23000003000300030003000342030003240321
:102E330006030003000304031203250323032503EE
:102E430023030403040300030003000344030003F8
:102E530000032303000365032100350381030003FB
:102E630005030003000300030003250323030302F8
:102E730071023001600211027002010202020202B9
:102E83008002100261023A0041006302730272027F
:102E9300620243020002130238000002000204022D
:102EA30012020002000200020002040204023700C0
:102EB30037003C02440200023900000200026502AE
:102EC300000235028102000205028202830200022F
:102ED3000300710030016000110070003102200313
:102EE30050048000100061000000140063007300B0
:102EF300720062004300000013000600000000009F
:102F030004001200000000000000000004000400A0
:102F1300370037003C0244000000000000000000BE
:102F230065000000350081000000050000008300FB
:102F330000000101710101010101110101013101D0
:102F4300010101018001100161013B0014006301D3
:102F530073017201620143010001130106013D0186
:102F63003500040112010001000100010001040108
:102F73000401330133013C014401320136000001F5
:102F83000001650100013500810100010501820195
:102F9300830100010304710402046004110470043A
:102FA3000204020401040204100461040004140472
:102FB30063047304720462044304000413040604E8
:102FC30000040004040412040004000400040004C8
:102FD30051046400000400040004440400040004D9
:102FE300000400046504000435048104640005043E
:102FF300000483040004000000000000000000003F
:1030030000000000000000000000000000000000BD
:1030130000000000000000000000000000000000AD
:1030230000006628122800000000000000000000D5
:10303300000000000000000000000000000000008D
:10304300000000000000000000000000000000007D
:10305300000000002821130098200100282102000D
:103063001A20030020200400262005002C2006003F
:10307300382030005C2031005620320068203300B5
:103083006E203500742034007A2036008020110031
:103093008C201400922015004A201F005020FFFFAF
:1030A300000001DE10061411080E110B2C1110483C
:1030B300100A3E1102E41005021107EA100CC610B3
:1030C3000DD210643E0EFF000007ECFDFDFDECDCAD
:1030D300DCCCBCACAC9C9C8C7C7C6C6C5C5C5C4C3D
:1030E3004C3C3C2C2C1C1C03EAF5E5D5D5C5B5A5F9
:1030F30095958585757565655555454535352525FD
:1031030015150500160F00000B150B020002220F08
:103113003300000E5A6967426565416C6C69616EE4
:103123006365303901030507090B0D0F000204061F
:10313300080A0C0D303017181921301B1D1F3030B1
:103143003016181920231A1C1E3000034A49434E17
:10315300181A25050200011916181616182303005C
:103163000C0E020B040B0A0708000F00393D3F3712
:103173003C3C362C442D020402010101010902E802
:1031830003000000BE040A7F00000000003C003C76
:1031930000E8030E00100C0A030808080004000CE2
:1031A300FF1E1E090503010C04040910150503285D
:1031B300E4F0A3F0A3F022A31231B3A3F0227F0C17
:1031C3000205CDE0F508E4F509F50AF50B227401D3
:1031D300F0900D78E0640F2274091209047F040251
:1031E30005CDE0FAA3E0F9EA22A3A3E024F5C39412
:1031F3001222900D981256887A147B0022C082C046
:10320300839005EF74BCF0A37414F0A374CEF0A301
:103213007414F09005F374A4F0A37414F0A3749ED3
:10322300F0A37414F0A374DAF0A37414F0A374E09D
:10323300F0A37414F0A374D4F0A37414F0A3748CE7
:10324300F0A37414F09005FF74B0F0A37414F0A30A
:1032530074B6F0A37414F0A374AAF0A37414F0A3C7
:1032630074E6F0A37414F09006101252E060061294
:103273005547121D1490060D1249D47408F0A3E4A7
:10328300F0A3F09006B0F0900612F07C0BFDF97AF3
:10329300137B06121C547C0B7D0079007A1E7B067F
:1032A300121C540249DD74F71203A374F712099830
:1032B300EAFEEBFF1247FD74051233767403F0EE5A
:1032C3002402FAE43F123350242DFCE43FFD8C82A8
:1032D3008D8312349D12335F6008123BC374FFF079
:1032E300A3F0EE242BE43F1C1CFD8C828D83A3E012
:1032F300C0E08A828B8312481DD0E012335F88823C
:1033030089831250062403125B4512275274081254
:103313000B977403F0900D8D120715740212097A3E
:103323007903EEFAEFFB12168A7402120904E9F527
:10333300087007EEFAEFFB12155EA9087409023B49
:10334300D3F582E43FF583126B19124FFBFB8A829C
:103353008B8312336EE8F0A3E9F0EE22125D821242
:10336300336EE8F0A3E9126340E02212345C8A82F0
:103373008B8322F0A3E4F012337E22EE240DF58238
:10338300E43FF5832274F11203A3EAFEEBFF8C08FA
:103393008D09890A1234728A828B8312345C740F0A
:1033A300120B9712348BE824FF18E934FFF9888253
:1033B3008983E50A12347D900D9212347A900D912F
:1033C30012347A7411120B9712348BEE2404FCE43A
:1033D3003FFD880B8A828B83E0F50C8C828D83E022
:1033E300250CC3950B125D7EE8F0A3E9124779A380
:1033F300A3A3A3A3A3A3A3E064037008124AD0F07A
:10340300A3E480061247FDE4F0A31233797409F0B4
:10341300750C13750D06750E00780C1208ED123439
:1034230066121C487403120904750CFF750DFF78AE
:103433000C1208F1AC08AD097903EEFAEFFB121692
:103443008A7402120904E9F5087007EEFAEFFB1219
:10345300155EA9087F070205CDE024FFF8A3E03439
:10346300FFF9227C0B7D00EE2418FAE43FFB22EEE9
:103473002402FAE43FFB2212349D12348122F0E845
:1034830024FF18E934FFF922E0F50CA312349D124E
:10349300348188828983E50CF022E0888289832243
:1034A300C082C08390062FE0C39408400474078051
:1034B30001E08A828B83F033333354F8F90249DD18
:1034C30074F01203A3EAFEEBFF890B8C0E8D0F75CC
:1034D3000A00A2AFE433F50CC2AF900629803F1275
:1034E30035AB50371235BC64037030EE24F9FEEF70
:1034F30034FFFF850882850983A3A3E02405FCA389
:10350300E03400FDEEFAEFFB122752EE24FF1EEF2C
:1035130034FFFF7410250AF50A150B124746126B88
:1035230015E50B6006E508450970B4E50CA2E092C9
:10353300AFA2AFE433F50CC2AF900629802C24026E
:10354300FAE43509FB8A828B83125D6D2406F582CA
:10355300E438F5831235C98A828B831235B1A3A36C
:103563001235C9050A150B12474612475B60221232
:1035730035BC640270F11235ABE50840C11238A2C4
:10358300A2E550E3850E82850F837401F0E50B708D
:10359300D6E50CA2E092AF8E828F83E50AF0EE248B
:1035A300FFFAEF34FFFB80351238AFA2E622123563
:1035B300B522126158A3A3A3228508828509831229
:1035C300615212579D22E08E828F83F0EE24FF1EFC
:1035D300EF34FFFF2212176874041209047F0802F4
:1035E30005CD74EC1203A374F512099889138A129A
:1035F3008B0F851882851983E4F004120972121463
:103603006E900D77E0292434F50CFA7B00121C6CC4
:103613008A088B09EA4509700302376AEA2402F52E
:103623000AE43509F50BEA250CF8E43BF9850A822F
:10363300850B83125207EA2404F510E43509F511CA
:10364300851082F583E4F0900D77E0FAF8C3E498EF
:10365300F895E0F9850A82850B83E028FEA3E0391B
:10366300FF900D75125A20750E00780C1208ED8A22
:103673000CAC0C7D00EEFAEFFB121C48740312092C
:1036830004AC18AD197401120B97E0F9EE24FFFA9C
:10369300EF34FFFB1214748A0C8B0DAE0CAF0D8E3E
:1036A300828F83E41235CEE50FC454F0F99006B14E
:1036B300E0C4333354C0F8900D71E0A2E0E4331357
:1036C300134849440F1235CAE512C454F045138E0A
:1036D300828F83F0EEF8850A82850B83E0FA8510EA
:1036E30082851183E02AC398F0850A82850B83EED5
:1036F300F0A3EFF0123776E4F0A3F0123896E4F07B
:10370300740A120B97E4F0750C1E750D06780C12F3
:1037130008ED7C0B7D00E5082418FAE43509FB125B
:103723001C487403120904851882851983E0600715
:10373300123776E04408F0E4F50AF50B780A12082C
:10374300F1740412097AECFEEDFF121672EEFCEF2F
:10375300FDAA08AB0912168A7402120904E9AA0821
:10376300AB096007121C727A007B00740B12090408
:103773000231C1E508240EF582E43509F58322748C
:10378300F31203A38A0A8B0BA2AFE433F50CC2AF87
:10379300750800750900900629802C1239C550243C
:1037A300850A82850B83A3A3126C168E828F83A353
:1037B300A312554A121678E9600A1237E6C2E6F0F8
:1037C3008E088F091239BA123C6470CFE508450997
:1037D30060061238ABD2E6F0E50CA2E092AF7F05AB
:1037E3000205CD1237EA22125A0DE02274F01203B9
:1037F300A3EAFEEBFF8C0C8D0D750E00A2AFE43334
:10380300F50FC2AF75080075090090062980208561
:103813000A08850B091238ABD2E4F0E5081238A286
:10382300D2E7F0E50A24FBF582E50B34FFF583E0EC
:10383300F50AA3E0F50BE50A450B6040E50A1246DD
:103843002D350BF583E0A2E750D9850A82850B83DA
:10385300A3A3120715AC0CAD0DEEFAEFFB12167E07
:103863007402120904E960BBE508450960A1123836
:1038730096E0640170061238BAD2E4F0E50FA2E0D4
:1038830092AFE50845096006121558750E01A90E99
:103893000235E0E508240DF582E43509F5832212AB
:1038A300465B3509F583E0221238AF22E50812465C
:1038B300313509F583E02285088285098312615237
:1038C300E02274F21203A374FE120998750C0075BA
:1038D3000D00851882851983E4F0A3F0A2AF33F5B8
:1038E3000AC2AF900629E0FEA3E0FF8035EE24FB79
:1038F300F582EF34FF126B13780C1208F1EEFCEF34
:10390300FD7A297B06121CA27402120904EEFCEF55
:10391300FDAA18AB19121C90AE08AF0990062FE050
:1039230014F0EE4F602B1239C5501DEE240BF8E452
:103933003FF988828983E024FFF0A3E034FFF08815
:103943008289831252E060A58E0C8F0D1239BA80E2
:1039530095E50AA2E092AF90062FE06031900D78D2
:10396300E0640F60069006B0E070237A077B0612CE
:10397300177490811A1207117A077B06121768745D
:1039830004120904800874F0124C0A12154CAA1888
:10399300AB19121C968A0A8B0BAE0AAF0BEE4F6063
:1039A300131214801237E6A2E28E828F83A350D6BD
:1039B30074E980D4023C6CEE24FBF582EF34FFF50E
:1039C30083221237EAA2E72274F71203A3EAFEEB7B
:1039D300FF12148012481A12052EE96401900D9407
:1039E300700AE02401F8A3E034008004E0F8A3E0C7
:1039F300F9124E5A12520790062FE07021900D785B
:103A0300E0640F70197A077B0612177490811A12FB
:103A130007117A077B061217687404120904E5A8D4
:103A2300F8C2AF90062FE004F0E80255CB74F7120A
:103A330003A3EAFEEBFF123A66F0121480EEFCEFEA
:103A4300FD7A297B06121C9CE5A8F8C2AF90062FCD
:103A5300124395900D78E0640F7005790812161ED5
:103A6300024A7B1237EAC2E42274F71203A374EA10
:103A7300120998EAFEEBFF900D71E0604085188211
:103A83008519837401F0120B97E4123B3C120B97D8
:103A9300AA82AB831227528E828F831238C0C0E072
:103AA300740A120B97D0E0125D88740B120B97AA5D
:103AB30082AB831216A2AA18AB1912298C741602B0
:103AC3003BD374F71203A3EAFEEBFF12146274DC18
:103AD30069601E74DD69601974E469601474F369C4
:103AE300600F74DE69600A74DF69600574DB6970F6
:103AF30007EEFAEFFB121624024A7B74F71203A3B4
:103B030074EB120998EAFEEBFF851882851983741A
:103B130006123B3C120B97AA82AB83122752125D0B
:103B23008D740A120B97AA82AB831216A2AA18AB42
:103B33001912298C7415023BD3F0EE2413FCE43FD5
:103B4300FD74022274F71203A374F7120998EAFEB4
:103B5300EBFFEE242D124812606312442DAA18AB1A
:103B6300191227527408120B977403F0900D8D12DB
:103B73000715123BC3120715900DA0E0F974041248
:103B8300097AEEFAEFFB121468740412090474DC68
:103B930069602374DD69601E74E469601974F369F4
:103BA300601474DE69600F74DF69600A74E8696029
:103BB3000574DB697007EEFAEFFB12162402333F3C
:103BC300EE123BC822242BF582E43FF583227403D3
:103BD300120904024A7B74F21203A38A088B097543
:103BE3000A00750B00750CE7A2AFE433F50DC2AF05
:103BF30090062980078E0A8F0B1239BA123C646033
:103C0300381239C550EF12480F640170E8EE242FC3
:103C1300124812F88A828B83A3A3E06870D7780ACC
:103C23001208F1EEFCEFFD7A297B06121CA2740246
:103C330012090490062FE014F0E50DA2E092AFEE16
:103C43004F6013EEFAEFFB12148079F0EEFAEFFBFC
:103C5300121624750C00A90CAA08AB0912162480AD
:103C63000DE0FEA3E0FFEE4F2274021209047F066B
:103C73000205CD74F41203A374F7120998EAFEEB5C
:103C8300FF8E828F83A3E064F37003023D208E8254
:103C93008F83A3E064DF7003023D208E828F83A3B2
:103CA300E064E860788E828F83A3E064DB606E1249
:103CB30014C2E9F508705EEE240E12481260561223
:103CC3003D2A12150AEA4B604C7408120B97123DF9
:103CD300341207157508FF7509FF78081208F18E6D
:103CE300828F83A3A3A3A3A3A3A3A3E0F9740412C2
:103CF300097A1214687404120904E9F50874F36567
:103D030008601274DF6508600C74E8650860067467
:103D1300DB6508700F8E828F83A3E508F0EEFAEF60
:103D2300FB1214CE0231DBEE240FFAE43FFB7909D8
:103D330022740212659D74FFF0A3123D4122123DCD
:103D4300452212500FA3A32274F11203A3EAFEEB40
:103D5300FF7508008E828F83A3A3A3A3A3A31231AD
:103D6300EC40037508E88E828F83A3A3A3A3A3A3C8
:103D7300A3A3A3A3E0C3941040057508E880138EA2
:103D8300828F83A3A3A3A3A3A3A3A3A3A3E0640FEB
:103D9300600B90068DE0540870037508E8EE240B61
:103DA300124812F88E828F83A3A3A3A3A3A3A3A372
:103DB300A3A3E0C398500DEE240B124812640F60C6
:103DC300037508E8900D91E0F47003A3E0F4700329
:103DD3007508EC7A237B00121D0E90061012555ABB
:103DE3009006101252E060278E828F83A3A3A982CC
:103DF300AA83890C8A0D750E00780C1208ED7C23BA
:103E03007D00125547121C48740312090480037580
:103E1300081A02345574F51203A3EAFEEBFF8E82EF
:103E23008F83A3A3A3A3A3A3A3A3E0900D781264FA
:103E330080900D93126466900D731264859006B1A1
:103E4300F0F91225CC9006B1E06018EE2404FAE4F0
:103E53003FFB79501225B4EE2406FAE43FFB79E1E7
:103E63001225B49006B01231D1600474018001E4CC
:103E730090061212646C1208ED7C0B7D007A137BA2
:103E830006121C487403120904EE2418F508E43FD3
:103E9300F50978081208ED7C0B7D007A1E7B06027B
:103EA300673674F71203A3EAFEEBFF8E828F83A3B8
:103EB300E070061255471214C88E828F83742C1239
:103EC3004C0A12163C024A7B74F71203A3EAFEEB78
:103ED300FF9006101252E0600D125547900610E451
:103EE300F0A3F0121D148E828F837408124C0A12F1
:103EF300298C024A7B74F61203A39006B0E0601388
:103F0300900612E0700D123F1912147AEA4B600307
:103F130012155E026808900D73E0FB900D93E0FAB2
:103F2300900D78E0F92274F41203A374E712099850
:103F3300EAFEEBFF750B018E828F83A3A3A3A3A3DA
:103F4300A3A3E0A2E25070EE242BF582E43F126CAF
:103F530014123FEF121486E9705D9080A9E06401AA
:103F6300700DEE241B124BF17005750B0080481287
:103F73003FF71208ED7C0B7D007411120972121CBD
:103F8300487403120904121672E9FA740E12096ACC
:103F93008808890978081208F175083075090078CE
:103FA300081208F1123BC3120715125D477901127B
:103FB30016907406120904851882851983741012E9
:103FC3003B3C120B97AA82AB83122746123BC312C8
:103FD3005684740B120B97125207740D120B97E54C
:103FE3000B124A6E12298C74190231DDEE2413FA76
:103FF300E43FFB22EE240812647422C082C0839043
:1040030006B1E060031216E40249DDC082C083906A
:1040130006A874EFF0A37405F0A374F3F0A374057A
:10402300F0A374FFF0A37405F090155A7497F0A3EE
:10403300742FF0900692745CF0A37414F09006341D
:104043007492F0A37414F09006367498F0A3741469
:10405300F090068DE044028001E4F00249DDC08265
:10406300C083EAFCEBFD790302507BC082C083EA84
:10407300FCEBFD790502507BC082C08379080262A4
:104083002FC082C08374FE12099890063C7446F0D8
:10409300A37415F090063E7440F0A37415F0800DE0
:1040A3007A297B06121C96124A641216609006291E
:1040B3001252E070EB90062B1252E0600F7A2B7BCA
:1040C30006121C96124A6412166080E9900629E4CF
:1040D300F0A3F090062F1231B4740280027411120F
:1040E30009040249DD74F61203A3E9FF746E29F58E
:1040F30082E43431F583E493FEFA7B00121C6CEA0C
:104103004B6011EA2E1251FD8A828B83A3A3A3A3D2
:10411300E4F0802C7A027B00121C6CEA4B601D7465
:10412300372FF582E43431F583E4938A828B83F06D
:10413300A3741AF0900688E0F9121C787A007B00C9
:10414300026808E9FD740629FCEAA2E0501EEC753A
:10415300F00A84A8F0E86014740A2CC398FCE8C33E
:1041630094054004740A2CFC740B2CFCEDC39413CB
:104173004004781480027806E82C79002409F8506A
:1041830001097A0A7B00120253E8F90208B6C082D9
:10419300C08390068DE05402600A122992E96004FC
:1041A3007901800279000249DDC082C08390068DC7
:1041B300E05402601690062FE0700C1252DD600B83
:1041C300E0C812475350047901800279000249DDA7
:1041D300C082C0839080A6E0F8900631E0C3985077
:1041E30005121C6C80047A007B000249DDC082C08A
:1041F3008312166079000249DD74F71203A374FE7B
:10420300120998851882851983EAF0A3EB12436B90
:10421300A3A3A3A3A3E0600A14605F24FE60680263
:1042230042EB900D78E0640F6018121636E97012B5
:1042330085188285198312554A90063812481D1233
:10424300052E900DA0E0C0E0851882851983124FDA
:10425300D9D0E012436B7414126599126C167A2B41
:104263007B06121C90E5A8F8C2AF90063112439565
:10427300792012161E7402023BD385188285198396
:1042830012615A741580D185188285198312434EA1
:10429300A3A3E06053851882851983E02402F8A361
:1042A300E03400F9888289831269DAE0C0E0851876
:1042B30082851983E0FCA3E0CC2406F582E43CF577
:1042C30083D0E0125DA08882898312555A851882B3
:1042D30085198312464F851882851983601312430B
:1042E30053600512435B4044AA18AB191216608051
:1042F3008412435360F212435B501D124763FA85E5
:104303001882851983124355F8747828F582E434AA
:1043130031F583E4936A6014851882851983124307
:1043230053640870C3124763640870BC1247631474
:10433300124373240AC0E085188285198312481D2D
:10434300D0E01243730402425BE0F8A3125026222A
:10435300E0F8A3E012437A22851882851983125D5F
:104363007112437BC3940A22124385F58388822208
:1043730012438512437A22C82406F582E438F58372
:10438300E02212659DE0F8A3E022E5A8F8C2AF9011
:104393000630E004F0E8A2E7A2E792AF22C082C0B1
:1043A300839006401252E0600812615B12052E8072
:1043B3000279000249DD74F71203A3EAFEEBFF1250
:1043C300337E7401F0EE2430F582E43FF583125A14
:1043D300E51233582432124812C0E0EE2413F5825A
:1043E300E43FF583D0E0F0EE2433124812C0E0EE50
:1043F3002414F582E43FF583D0E0F0EE242CF5821B
:10440300E43FF58312071512442DEE242E124812B1
:10441300F912168A7402120904E9F5087007EEFA14
:10442300EFFB12155EA908024A7BEE2423FCE43F4E
:10443300FD22C082C083121636E96004792080020F
:1044430079010249DDC082C083EA12462D1244EE8F
:10445300D2E002405DC082C0831244E8640170115F
:104463001244F3400C8A828B83A3E0F91216248052
:1044730071EA24101244EBA2E650128A828B83A3C2
:10448300E0F990063A12481D12052E80551244E8B1
:104493006401700D1244F350088A828B8374308058
:1044A300388A828B83A3E0641B8A828B83700474B3
:1044B300228026A3E0700E1244E8F8744228F582A5
:1044C300E43431800C1244E8F8743728F582E4347C
:1044D30031F583E4938A828B83F0900688E0F912A6
:1044E3001C780249DDEA240DF582E43BF583E022E2
:1044F300EA12465B3BF583E0A2E32274F71203A3BF
:10450300E9FE1252DD7003024624EE6011741B6E45
:104513007013E0C8124627640570030245EF126169
:104523004AE40245F374E96E7062124647700B1257
:104533002998E96005124661606279EE12252A9096
:104543000632124644900632603B124664900632AD
:10455300700B12464414F01226F802462412464FFA
:10456300C2E712476F1246276403700C125D6A128A
:10457300462D124380D2E2F079ED12252A124637F6
:1045830012052E807512614D74E9806474E16E70BA
:104593003E122998E960551246617050900D9AE0D9
:1045A300C0E0125D6A2412F582E438F583D0E0F0AE
:1045B300900D89E0C0E090063212434C12434CD078
:1045C300E0F0900D89E004F079011226E080527446
:1045D3001C6E701890063212554A90064212481DFE
:1045E30012052E900632E4F0A3F0803512614AEEF4
:1045F300F090063212554A12154C125D6A125D4F45
:10460300E054806010900DA0E0F91225F0900D9F0A
:10461300E0F91225E4900632E4F0A3F079101216C3
:104623001E024A7B240D12437D221246312224119D
:10463300F582E42290063212554E900636126154EA
:1046430022E0F8A3E0C8241212437D22E0F8A3E09D
:10465300C812465B124380222410F582E42290069E
:1046630032125D71125D53E054042274F41203A3F9
:10467300750A00750B00A2AFE433FFC2AF1252DD1F
:10468300600302472B12481A12052EE94410F890D2
:104693000629800985080A85090B12474612475BDC
:1046A300700302472B1238AB586870E8780A120877
:1046B300F1AC08AD097A297B06121CA27402120917
:1046C30004900632E508F0A3E50912476F12475339
:1046D300405D900630E014F0EFA2E092AF90063216
:1046E300E0240EF8A3E03400F9880889098882F5EC
:1046F3008312554A900632124769F9121510E99050
:10470300062DF0124777E054809006326026125D42
:104713006D241312437DF91225F0125D6A241412DD
:10472300437DF91225E48018EFA2E092AF80119047
:10473300062F80A112464FA2E1B3E433F91226E01B
:104743000231E0E50824FBF582E50934FFF5832215
:10475300241112437DA2E722126B19E508450922B1
:104763008518828519831235B5A3E022F0900632AD
:10477300125D7122A3E4F08508828509832274F710
:104783001203A3EAFEEBFF12165AEE24101248128C
:10479300A2E3400C12480F640170059080A48003CB
:1047A3009080A5E0F9EEFCEFFD7A297B06121CA8A8
:1047B300E96037EEFAEFFB90063C12481D12052E16
:1047C300EE240E1248125404701112438D1247FD49
:1047D300A3E054017021121558801CEEFAEFFB90F0
:1047E300063412481D12052E800D8E828F83A3740A
:1047F300F1124C0A12154C024A7B12480122EE2494
:104803000EF582E43FF5832234FFF509EE240DF51E
:1048130082E43FF583E02290063E12615422C08277
:10482300C0831215580249DD74F71203A3EAFEEBA5
:10483300FF790090068DE05402700CEE243012488C
:10484300125404600279E890068DE05460700CEE17
:1048530024301248125402600279E88E828F83A3B7
:10486300A3A3A3E0F89080AAE0C398500279E8EEEE
:10487300242E124812700CEE242B12481270047965
:10488300F58009E9700312153AE96007EEFAEFFBC8
:10489300121624024A7BC082C0838A828B83740DE2
:1048A300F012298C0249DDC082C0838A828B83E4A3
:1048B300F0A3F0EA24301244EB54049080A4701265
:1048C300E0F8900630E0C398401279F11216240202
:1048D30049DDE0F890062FE0C39850EE900688E09B
:1048E300F9121C7880E974F61203A3E9FE244CFA4A
:1048F300E43400FB121C6CEA4B6012EE8A828B8359
:10490300A3A3A3A3F0EA244C1251FD80047A007BF5
:1049130000026808C082C08390064474A6F0A374A2
:1049230015F0A374D6F0A37415F0A374ACF0A374BC
:1049330015F0A374B2F0A37415F0A374D0F0A374AC
:1049430015F0A374C4F0A37415F0A374BEF0A3749C
:1049530015F0A374DCF0A37415F0A374E2F0A37450
:1049630015F0A374E8F0A37415F0A374F4F0A37422
:1049730015F0A374B8F0A37415F0A374A0F0A37496
:1049830015F0A3749AF0A37415F090066074CAF03E
:10499300A37415F0A374EEF0A37415F0A3742CF0B4
:1049A300A37417F0A374FAF0A37415F0A37400F0C2
:1049B300A37416F0900684E4F0900687F0900670D6
:1049C3001249D47402F09006791249D4740102405A
:1049D3005D741EF0A37416F0A322D083D082020864
:1049E300B674F51203A374F1120998851882851918
:1049F300837402F07401120B97E9F060047AFF7B71
:104A0300FF7402120B9712555A75087C75090675C7
:104A13000A0078081208ED7C0B7D007407120B97CF
:104A2300AA82AB83121C487403120904AA18AB1997
:104A330012298C740F02673B74F71203A374FD12DF
:104A43000998851882851983740AF07401120B97EB
:104A5300E9F07402120B97EA124A6E12298C023B98
:104A6300D1851882851983EAF0A3EBF0AA18AB1954
:104A730022EEFAEFFB1216D87F010205CD74F6126F
:104A830003A374F7120998EAFEEBFF124AD012331C
:104A9300767402124BFBAA18AB19122746EE242E8A
:104AA3001233442430125B521208F1740212097A51
:104AB30079831A1AEFFB12168A7402120904E9F5B4
:104AC300087007EEFAEFFB12155E02680112480147
:104AD30074012274F01203A3126624120B407808A7
:104AE300790C1202B478081208E97A737B0602354E
:104AF300D874F41203A374C6120998900D78E06475
:104B03000F6010851882851983742E124A6E12164F
:104B13003C80277A6A7B061217741231F512025B06
:104B230088088909E4F50AF50B78081208E97A6A16
:104B33007B061217687404120904743A0231DD7497
:104B4300F51203A3EAFEEBFF8E828F83A3E0F860E6
:104B530003024BD7124BEE6007E06403600278E870
:104B6300EE2423F582E43FF5831231EE400478E826
:104B73008065E8705FEE2423FAE43FFB79E11225B8
:104B8300B4EE242EFAE43FFB79501225B4124BEE17
:104B9300700E125D3D125684900D871252078012DB
:104BA300900D8774FEF0A304124BFB7A7E7B0D12EB
:104BB3002752EE2418123FFA1208ED7C0B7D007A7F
:104BC3007C7B06121C487403120904EEFAEFFB12F5
:104BD3001594E9F8E86011E88E828F83A3125F8C45
:104BE3007417124C0A12163C02673EEE242DF5820E
:104BF300E43FF583E0640222F0EE2425FCE43FFD6C
:104C0300228E828F837429F0EEFAEFFB2274F61260
:104C130003A374F7120998900687E0703B7401F0C0
:104C2300F91226A4AA18AB1912166C75087C75091B
:104C33000678081208F1750801750900780812084A
:104C4300F1900D8D120715740612097A7A0379050E
:104C5300121690740612090402680374F71203A370
:104C6300EAFEEBFF79011226AA8E828F83E064208D
:104C73007004A374EBF0900687E0A2E25003C2E253
:104C8300F0E0A2E15008124E9C12158E800C8E8229
:104C93008F83742A124C0A12163C024A7B74F41254
:104CA30003A374FE120998EAFEEBFF79011226AA08
:104CB3007A6A7B061217747A737B06121774124F83
:104CC300E5851882851983125019E0F50B700FAA38
:104CD30018AB1979531225B41267D41225B4123FB5
:104CE300F71208ED7C0B7D007A7C7B06121C48745E
:104CF3000312090485188285198312554AA90B12D8
:104D03001588900687E0A2E1500C7A008E828F838B
:104D1300A3E0F912158E900687E4F074020231DDE8
:104D230074F71203A3EAFEEBFF8E828F83A374EB67
:104D3300F0900687E0A2E150077A0079EB12158E16
:104D4300EEFAEFFB1215C4024A7B74F71203A3EACF
:104D5300FEEBFF79011226AA7A6A7B061217747A90
:104D6300737B06121774900684E4F0900687F07A3A
:104D7300FF7BFF8E828F83A3E0F9121588024A7BA3
:104D830074F71203A3EAFEEBFF1215BE024A747412
:104D9300F71203A3EAFEEBFF79011226AA8E828F94
:104DA30083A3A3A3A3E06003E4800274EB124DE3A7
:104DB3005003C2E2F0E0A2E15008124EE412158E55
:104DC3008014A2E050108E828F83742AF0A374EBB8
:104DD300124C0A12163CEEFAEFFB121570024A7BD4
:104DE3008E828F83A3F0900687E0A2E22274F612EC
:104DF30003A3EAFEEBFF900687E0D2E1F07901120C
:104E030026A48E828F83A3E0703C121672E9FAEE19
:104E1300240DF508E43FF50978081208F175080137
:104E230075090078081208F1124E5A120715EE247C
:104E330002FCE43FFD79051216907406120904E999
:104E43008E828F83A3F08E828F83A3E060067A0025
:104E5300F912158E026808124E5E22EE240BF582BB
:104E6300E43FF5832274F71203A3EAFEEBFF790113
:104E73001226AA8E828F83E064207004A374EBF061
:104E8300900687E0A2E25003C2E2F0E0A2E15006FE
:104E9300124E9C12158E024A7BC2E1F07A008E827A
:104EA3008F83A3E0F92274F71203A3EAFEEBFF79E1
:104EB300011226AA7A6A7B061217748E828F83A345
:104EC300A3A3A3E06003E4800274EB124DE3500359
:104ED300C2E2F0E0A2E15006124EE412158E024D3A
:104EE300D9C2E1123D41A3E0A2E4E433FA8E828FFA
:104EF30083A3E0F92274F71203A3EAFEEBFF79011F
:104F03001226AA8E828F83A374EB124DE85003C23C
:104F1300E2F0E0A2E15006124E9C12158E024A7B8B
:104F230074F71203A3EAFEEBFF7A6A7B0612177487
:104F3300EEFAEFFB1215E8024A7474F71203A3EAC0
:104F4300FEEBFF7A6A7B06121774EEFAEFFB12157B
:104F5300E8024A7B74F71203A374EF120998EAFE7E
:104F6300EBFF125D477A7E7B0D122740E960628575
:104F730018828519837409F07401120B9774EFF08A
:104F8300124FE5F87402120B97E8125019A3A3E02D
:104F9300C0E07404120B97D0E01250066408701539
:104FA3008E828F83A3A3124FD9E0C0E07405120B46
:104FB30097D0E080067405120B97E4125D8874069F
:104FC300120B97AA82AB831216A2AA18AB19122945
:104FD3008C7411023BD3125D712407F582E438F51A
:104FE3008322124FFBFB8A828B8312568888828925
:104FF30083E0FCA3E0F9EC22EE2402F8E43FF9E8B5
:10500300FAE92212500A2212500FE022F08E828F08
:1050130083A3A3A3A322F0A3E9125D821250232248
:10502300E0F8A312615BA3A322C082C0831216E43B
:105033000249DDC082C0839006A47444F0A37406C1
:10504300F0A37460F0A37406F09015547435F0A3C4
:10505300742FF0A37471F0A3742EF09006907482F1
:10506300F0A37415F090068DE0440102405DC08208
:10507300C083EAFCEBFD79021216480249DDC082C7
:10508300C083790602622F74F61203A374FE120919
:10509300989006891252E060077A897B061216609F
:1050A30090068FE4F09007731252E060268007AAFF
:1050B30018AB19121660900688E0F9121C848A084E
:1050C3008B09A808A909851882851983125207E854
:1050D3004970DC740202680574F61203A3E9FA7BD3
:1050E30000900688E0F9121CAE02680874F71203F8
:1050F300A374F0120998EAFCEBFDE9FE8C828D8320
:10510300E0F8746328F582E43431F583E493C0E076
:105113007401120B97D0E0F0640B700DEE8C828D4E
:1051230083A3F01216C60251F0E070030251F0643B
:105133000C60030251E1741A6E700B7404120B9726
:10514300E4F0A30251E07404120B97ECF0A3EDF02A
:10515300EC242F1251F5C0E07403120B97D0E01228
:105163006337120B687406120B97120B5C8C828DDB
:105173008312567B740A120B97125207EC240E12F9
:1051830051F554106009851882851983E48013EC66
:1051930024121251F5F8900D9AE0C3988518828570
:1051A3001983F0E0C0E0740C120B97D0E0F0EC240C
:1051B300151251F5C0E0740D120B97D0E0F0EC24FA
:1051C300161251F5C0E0740E120B97D0E0F0EC24E8
:1051D300171251F5C0E0740F120B97D0E0F0740270
:1051E300120B97EEF0740112097212298C741002DB
:1051F3003BD3F582E43DF583E022F8E43BF98A8270
:105203008B83A3A3E8F0A3E9F022C082C0839006B6
:105213008FE070047901800279000249DDC082C009
:105223008390068FE0600464027004790180027940
:10523300000249DDC082C08390068FE064037004DE
:105243007901800279000249DD74F61203A3900606
:105253008FE01252CA745228F582741539F58312FD
:1052630057DFC2E7F01252D1A3E493FE25E0FCE43A
:1052730033FD74522CF58274153D126C14EC4D60A1
:1052830005EE90068FF08A828B83E025E0FCE43301
:10529300FDE82CF582E93DF583E493F508C4540F4A
:1052A30025E0F8749E28F582E43406F5831252E073
:1052B30070051216B4800DE508540F1252D112482E
:1052C3001D12052E02680825E0F8E433F92225E0D3
:1052D300FCE82CF582E439F58322900632125688D5
:1052E300E8492274F01203A374FE120998890FEAA5
:1052F300FEEBFF1253FBFA7B00121C6C8A088B092E
:10530300EA450960468A828B83E50FF0A3E4F08EB9
:105313000C8F0DF50E780C1208ED850F0A745825C5
:105323000AF582E43431F583E493FC7D00EA240238
:10533300FAE43509FB121C487403120904AA08ABEA
:1053430009900688E0F9121C788012851882851965
:1053530083E50FF0791AAA18AB1912162474020206
:1053630035DD74F21203A374FE120998890C8A08BE
:105373008B091253FBF50DFA7B00121C6C8A0A8B06
:105383000BAE0AAF0BEE4F60588E828F83E50CF0A5
:10539300A3E4F0850D0AEE250AF8E43FF98E828F27
:1053A300831252058E828F83A3A3A3A3E4F0F50A8D
:1053B30078081208ED850C0874582508F582E43442
:1053C30031F583E493FC123468121C487403120908
:1053D30004EEFAEFFB900688E0F9121C787900805E
:1053E30014851882851983E50CF0791AAA18AB196C
:1053F300121624791A023C6C744D29F582E4343177
:10540300F583E49322C082C083E990068802405D5D
:1054130074F61203A374FE120998EAFEEBFFEE542E
:10542300207031803AE5A8F8C2AF900631E014123B
:1054330043978A828B8312553E90068B12555A12DC
:10544300163C851882851983E0641560077A8B7B87
:10545300061216607A2B7B06121C96EA4B70C6EF77
:1054630054807012801C90068B12555A12163C7A87
:105473008B7B06121660900688E0F9121C84EA4BB7
:1054830070E4EE5410600E851882851983742D1212
:105493004A6E12163CEEA2E0500E851882851983DF
:1054A3007424124A6E12163CEE5402600E85188262
:1054B3008519837425124A6E12163CEE5404600E4D
:1054C3008518828519837426124A6E12163CEE548F
:1054D30008600E8518828519837428124A6E121685
:1054E3003CEE544060107401120B97126598742CB3
:1054F300124A6E12163CEE548060107401120B9720
:10550300126598742F124A6E12163C900689125235
:10551300E06021E5A8F8C2AF90068912554A9006CB
:1055230089E4F0A312439712555912163C7A8B7BE8
:10553300061216607A007B000250D6E08518828539
:105543001983F02290061012554E22E0FAA3E0FBD5
:1055530022A3A3A3A3A3A3EAF0A3EBF022C082C0D8
:105563008390068B125684EA687002EB6970079089
:10557300068BE4F0A3F00249DD74F71203A3EAFEFD
:10558300EBFFEE4F700312237AA2AFE433F508C2A8
:10559300AF8E828F831252E06028E824FBFAE9344D
:1055A300FFFB90068B126C16E86C7002E96D7007B6
:1055B30090068BE4F0A3F08E828F83E4F0A3F012C5
:1055C3001D14E508A2E08004A2E7A2E792AF024A15
:1055D3007BC082C0839006B274A8F0A37416F0A3B4
:1055E30074BAF0A37416F0A374C0F0A37416F0A3F6
:1055F300746AF0A37415F0A374C6F0A37416F0A331
:105603007464F0A37415F0A37470F0A37415F09090
:1056130006C074FCF0A37416F0A374CCF0A3741644
:10562300F0A374D2F0A37416F0A374DEF0A374167F
:10563300F0A374D8F0A37416F09006B102405CC0D6
:1056430082C083900D87E064FE7003A3E0F47009C9
:105653007C7E7D0D122746801C8A828B83A3A3A3A5
:10566300A3A3A3A3A37402F0900D871256848A8286
:105673008B831252070249DDA3A3A3A3A3A3A3A36E
:10568300A312568822E0F8A3E0F922C082C08390D7
:105693000D91C3E094FEA3E094FF400479038002DC
:1056A30079020249DDC082C0831257E88C828D8360
:1056B30012579D687039740268701C8A828B83123A
:1056C30056F7E06870298A828B83A31256F7A3E00A
:1056D30068701C7901801A7403687013EC2405FC4C
:1056E30050010DEA2405FA50010B12274C80027970
:1056F300000249DDA3A3A3A3A3E0F88C828D83A3B7
:10570300A3A3A3A32274F61203A37E00740A120BAD
:1057130097E0125791FF8A828B83A3A3A3A3A3A32A
:10572300A3A3E06F706374026F704D8A828B83C092
:1057330082C08388828983A3A3A3A3A3E0F50888F7
:10574300828983A3A3A3A3A3A3E0FBAA08D083D046
:1057530082E06A7003A3E06B702F88828983A3A31E
:10576300A3E0FA88828983A3A3A3A3E0F9EA6C7078
:1057730002E96D70140E801174036F700CE8240538
:10578300FCE439FD12274CE9FEEEF9026808F8A3A0
:10579300E0F98882898312579D22A3E01313543FB3
:1057A300540322C082C0838A828B83A3A3A3A3A3AF
:1057B300A3A3A3E064027016900D871257DF6870ED
:1057C30003A3E06970047901800F7900800BEAFC80
:1057D300EBFD7A7E7B0D1227400249DD1256888A43
:1057E300828B83E0228A828B8312579DF82274EC8A
:1057F3001203A3EAFEEBFF8C128D13750A008C8251
:105803008D83A3A3A3A3A3A3A3A3E0F510E9A2E716
:105813005008750CFF750DFF8006900D8D125A20F0
:10582300E9C2E7F511EE240E124812542060071264
:105833005A0174088004125A01E4125A285404606D
:1058430007125A0974808005125A097410125A28D3
:10585300541060061259E6E4800B900D9AE0C0E004
:105863001259E6D0E0125A28A2E05003750A2054D8
:105873000860067410450AF50A8E828F83A3A3E09D
:1058830024FFF508A3E012480BC39402E0400B6425
:105893000B6005E014125A2F7403450AF50A750BC1
:1058A30000900DADE0640170118E828F83A3A3A3DA
:1058B300A3E0C394674003750B1085110E750F00A9
:1058C300740E780E120A29E50F450BF50B741412AA
:1058D3000B97E0F50EA3E0F50F74026511700E90BF
:1058E3000D92125A2E900D91125A1580137403655E
:1058F3001170121259F07CA17D0DAA08FB122752D8
:105903001259FD8004E5116028E5106014E50E6569
:105913000C7004E50F650D70087440450AF50A80A4
:1059230010850882850983E50D125A4BE50C125A3E
:105933003585100C750D00740A780C120A29E50DD3
:10594300450BF50B74026510701585128285138360
:10595300A3125A2E851282851383125A158013744B
:1059630003651070121259F0AC12AD13AA08FB12A2
:1059730027521259FD8004E51060108508828509BD
:1059830083E50F125A4BE50E125A35A808A909E808
:1059930024FFF508E912480B7005900D7D800390F4
:1059A3000D89E0FA04F0EA88828983124779E50BCE
:1059B300125A4BE50AF0EE2404F8E43FF91234726C
:1059C300AC088A828B83E0F50A88828983E0250A02
:1059D300C39C125D7EECF0A3E509125EFAE4F0F9D4
:1059E3000231C1EE2412F582E43FF58322E5082457
:1059F300F9F508E50934FFF50922125A3E22EE12A1
:105A0300465B3FF58322125A0D22EE1246313FF5D3
:105A13008322E0850882850983F022F583E0F50C73
:105A2300A3E0F50D22F0124801E022E0850882850B
:105A33000983125A3922F0125A3E22E50824FFF54F
:105A430008E50934FFF50922125A39850882F583DE
:105A53002274EE1203A3890A8A0B8C108D11750C24
:105A63001A7416120B97126B15AA08FB12150A8AE1
:105A73000E8B0FAE0EAF0FEE4F60607414120B97C8
:105A8300125AE5E8F0A3E9123379E50AF085080C28
:105A930085090D750E00780C1208ED123466121C80
:105AA3004874031209047412120B97120715AC10F1
:105AB300AD11A90BEEFAEFFB12168A740212090458
:105AC300E9F50C7016E50A24F96003147006123721
:105AD300E6D2E5F0EEFAEFFB12155EA90C7F0A029F
:105AE30005CD1261691248022274F61203A374F7FA
:105AF300120998EAFEEBFF7801EE242F1248126098
:105B03000278051247FDE81233767404125B4512DE
:105B13002746EE242C123344242E125B521208F132
:105B2300740212097A79031A1AEFFB12168A7402A5
:105B3300120904E9F5087007EEFAEFFB12155E028D
